{
  "abi": [
    {
      "inputs": [
        {
          "internalType": "uint256",
          "name": "_URIsPerToken",
          "type": "uint256"
        }
      ],
      "stateMutability": "nonpayable",
      "type": "constructor"
    },
    {
      "anonymous": false,
      "inputs": [
        {
          "indexed": true,
          "internalType": "address",
          "name": "owner",
          "type": "address"
        },
        {
          "indexed": true,
          "internalType": "address",
          "name": "approved",
          "type": "address"
        },
        {
          "indexed": true,
          "internalType": "uint256",
          "name": "tokenId",
          "type": "uint256"
        }
      ],
      "name": "Approval",
      "type": "event"
    },
    {
      "anonymous": false,
      "inputs": [
        {
          "indexed": true,
          "internalType": "address",
          "name": "owner",
          "type": "address"
        },
        {
          "indexed": true,
          "internalType": "address",
          "name": "operator",
          "type": "address"
        },
        {
          "indexed": false,
          "internalType": "bool",
          "name": "approved",
          "type": "bool"
        }
      ],
      "name": "ApprovalForAll",
      "type": "event"
    },
    {
      "anonymous": false,
      "inputs": [
        {
          "indexed": true,
          "internalType": "address",
          "name": "from",
          "type": "address"
        },
        {
          "indexed": true,
          "internalType": "address",
          "name": "to",
          "type": "address"
        },
        {
          "indexed": true,
          "internalType": "uint256",
          "name": "tokenId",
          "type": "uint256"
        }
      ],
      "name": "Transfer",
      "type": "event"
    },
    {
      "inputs": [],
      "name": "URIsPerToken",
      "outputs": [
        {
          "internalType": "uint256",
          "name": "",
          "type": "uint256"
        }
      ],
      "stateMutability": "view",
      "type": "function"
    },
    {
      "inputs": [
        {
          "internalType": "address",
          "name": "to",
          "type": "address"
        },
        {
          "internalType": "uint256",
          "name": "tokenId",
          "type": "uint256"
        }
      ],
      "name": "approve",
      "outputs": [],
      "stateMutability": "nonpayable",
      "type": "function"
    },
    {
      "inputs": [
        {
          "internalType": "address",
          "name": "owner",
          "type": "address"
        }
      ],
      "name": "balanceOf",
      "outputs": [
        {
          "internalType": "uint256",
          "name": "",
          "type": "uint256"
        }
      ],
      "stateMutability": "view",
      "type": "function"
    },
    {
      "inputs": [],
      "name": "currentId",
      "outputs": [
        {
          "internalType": "uint256",
          "name": "",
          "type": "uint256"
        }
      ],
      "stateMutability": "view",
      "type": "function"
    },
    {
      "inputs": [
        {
          "internalType": "uint256",
          "name": "",
          "type": "uint256"
        },
        {
          "internalType": "uint256",
          "name": "",
          "type": "uint256"
        }
      ],
      "name": "currentURI",
      "outputs": [
        {
          "internalType": "string",
          "name": "",
          "type": "string"
        }
      ],
      "stateMutability": "view",
      "type": "function"
    },
    {
      "inputs": [],
      "name": "getAllTokenURIs",
      "outputs": [
        {
          "internalType": "string[]",
          "name": "",
          "type": "string[]"
        }
      ],
      "stateMutability": "view",
      "type": "function"
    },
    {
      "inputs": [
        {
          "internalType": "uint256",
          "name": "tokenId",
          "type": "uint256"
        }
      ],
      "name": "getApproved",
      "outputs": [
        {
          "internalType": "address",
          "name": "",
          "type": "address"
        }
      ],
      "stateMutability": "view",
      "type": "function"
    },
    {
      "inputs": [],
      "name": "getCurrentURIs",
      "outputs": [
        {
          "internalType": "string[]",
          "name": "",
          "type": "string[]"
        }
      ],
      "stateMutability": "view",
      "type": "function"
    },
    {
      "inputs": [
        {
          "internalType": "uint256",
          "name": "tokenId",
          "type": "uint256"
        }
      ],
      "name": "getTokenURI",
      "outputs": [
        {
          "internalType": "string",
          "name": "",
          "type": "string"
        }
      ],
      "stateMutability": "view",
      "type": "function"
    },
    {
      "inputs": [
        {
          "internalType": "uint256",
          "name": "tokenId",
          "type": "uint256"
        }
      ],
      "name": "getTokenURIs",
      "outputs": [
        {
          "internalType": "string[]",
          "name": "",
          "type": "string[]"
        }
      ],
      "stateMutability": "view",
      "type": "function"
    },
    {
      "inputs": [
        {
          "internalType": "address",
          "name": "owner",
          "type": "address"
        },
        {
          "internalType": "address",
          "name": "operator",
          "type": "address"
        }
      ],
      "name": "isApprovedForAll",
      "outputs": [
        {
          "internalType": "bool",
          "name": "",
          "type": "bool"
        }
      ],
      "stateMutability": "view",
      "type": "function"
    },
    {
      "inputs": [
        {
          "internalType": "string[]",
          "name": "tokenURIs",
          "type": "string[]"
        }
      ],
      "name": "mint",
      "outputs": [
        {
          "internalType": "uint256",
          "name": "",
          "type": "uint256"
        }
      ],
      "stateMutability": "nonpayable",
      "type": "function"
    },
    {
      "inputs": [],
      "name": "name",
      "outputs": [
        {
          "internalType": "string",
          "name": "",
          "type": "string"
        }
      ],
      "stateMutability": "view",
      "type": "function"
    },
    {
      "inputs": [
        {
          "internalType": "uint256",
          "name": "tokenId",
          "type": "uint256"
        }
      ],
      "name": "ownerOf",
      "outputs": [
        {
          "internalType": "address",
          "name": "",
          "type": "address"
        }
      ],
      "stateMutability": "view",
      "type": "function"
    },
    {
      "inputs": [
        {
          "internalType": "address",
          "name": "from",
          "type": "address"
        },
        {
          "internalType": "address",
          "name": "to",
          "type": "address"
        },
        {
          "internalType": "uint256",
          "name": "tokenId",
          "type": "uint256"
        }
      ],
      "name": "safeTransferFrom",
      "outputs": [],
      "stateMutability": "nonpayable",
      "type": "function"
    },
    {
      "inputs": [
        {
          "internalType": "address",
          "name": "from",
          "type": "address"
        },
        {
          "internalType": "address",
          "name": "to",
          "type": "address"
        },
        {
          "internalType": "uint256",
          "name": "tokenId",
          "type": "uint256"
        },
        {
          "internalType": "bytes",
          "name": "data",
          "type": "bytes"
        }
      ],
      "name": "safeTransferFrom",
      "outputs": [],
      "stateMutability": "nonpayable",
      "type": "function"
    },
    {
      "inputs": [
        {
          "internalType": "address",
          "name": "operator",
          "type": "address"
        },
        {
          "internalType": "bool",
          "name": "approved",
          "type": "bool"
        }
      ],
      "name": "setApprovalForAll",
      "outputs": [],
      "stateMutability": "nonpayable",
      "type": "function"
    },
    {
      "inputs": [],
      "name": "size",
      "outputs": [
        {
          "internalType": "string[]",
          "name": "",
          "type": "string[]"
        }
      ],
      "stateMutability": "view",
      "type": "function"
    },
    {
      "inputs": [
        {
          "internalType": "bytes4",
          "name": "interfaceId",
          "type": "bytes4"
        }
      ],
      "name": "supportsInterface",
      "outputs": [
        {
          "internalType": "bool",
          "name": "",
          "type": "bool"
        }
      ],
      "stateMutability": "view",
      "type": "function"
    },
    {
      "inputs": [],
      "name": "symbol",
      "outputs": [
        {
          "internalType": "string",
          "name": "",
          "type": "string"
        }
      ],
      "stateMutability": "view",
      "type": "function"
    },
    {
      "inputs": [
        {
          "internalType": "uint256",
          "name": "tokenId",
          "type": "uint256"
        }
      ],
      "name": "tokenURI",
      "outputs": [
        {
          "internalType": "string",
          "name": "",
          "type": "string"
        }
      ],
      "stateMutability": "view",
      "type": "function"
    },
    {
      "inputs": [
        {
          "internalType": "address",
          "name": "from",
          "type": "address"
        },
        {
          "internalType": "address",
          "name": "to",
          "type": "address"
        },
        {
          "internalType": "uint256",
          "name": "tokenId",
          "type": "uint256"
        }
      ],
      "name": "transferFrom",
      "outputs": [],
      "stateMutability": "nonpayable",
      "type": "function"
    }
  ],
  "bytecode": {
    "object": "0x60806040523480156200001157600080fd5b5060405162001b4538038062001b45833981016040819052620000349162000149565b60408051808201825260028152613bb360f11b6020808301918252835180850190945260098452680eed0c2d8caccd2e6d60bb1b908401528151849391620000809160009190620000a3565b50805162000096906001906020840190620000a3565b505050600855506200019f565b828054620000b19062000163565b90600052602060002090601f016020900481019282620000d5576000855562000120565b82601f10620000f057805160ff191683800117855562000120565b8280016001018555821562000120579182015b828111156200012057825182559160200191906001019062000103565b506200012e92915062000132565b5090565b5b808211156200012e576000815560010162000133565b6000602082840312156200015c57600080fd5b5051919050565b600181811c908216806200017857607f821691505b6020821081036200019957634e487b7160e01b600052602260045260246000fd5b50919050565b61199680620001af6000396000f3fe608060405234801561001057600080fd5b50600436106101425760003560e01c806370a08231116100b8578063b0da7ba51161007c578063b0da7ba514610297578063b88d4fde146102aa578063c87b56dd146102bd578063d8e1b3aa146102d0578063e00dd161146102d9578063e985e9c5146102e257600080fd5b806370a082311461025957806389fde7af1461026c578063949d225d1461027457806395d89b411461027c578063a22cb4651461028457600080fd5b806323b872dd1161010a57806323b872dd146101d95780633bb3a24d146101ec57806342842e0e146101ff5780635768f271146102125780636352211e14610233578063642241201461024657600080fd5b806301ffc9a71461014757806306fdde031461016f578063081812fc14610184578063095ea7b3146101af5780632370748c146101c4575b600080fd5b61015a61015536600461137f565b61031e565b60405190151581526020015b60405180910390f35b610177610370565b60405161016691906113f0565b610197610192366004611403565b610402565b6040516001600160a01b039091168152602001610166565b6101c26101bd366004611438565b610429565b005b6101cc610543565b6040516101669190611462565b6101c26101e73660046114c4565b6105e4565b6101776101fa366004611403565b610615565b6101c261020d3660046114c4565b610709565b61022561022036600461159f565b610724565b604051908152602001610166565b610197610241366004611403565b61079a565b6101cc610254366004611403565b6107fa565b610225610267366004611677565b610935565b6101cc6109bb565b6101cc610abb565b610177610b20565b6101c2610292366004611692565b610b2f565b6101776102a53660046116ce565b610b3e565b6101c26102b83660046116f0565b610be3565b6101776102cb366004611403565b610c1b565b61022560085481565b61022560075481565b61015a6102f036600461176c565b6001600160a01b03918216600090815260056020908152604080832093909416825291909152205460ff1690565b60006001600160e01b031982166380ac58cd60e01b148061034f57506001600160e01b03198216635b5e139f60e01b145b8061036a57506301ffc9a760e01b6001600160e01b03198316145b92915050565b60606000805461037f9061179f565b80601f01602080910402602001604051908101604052809291908181526020018280546103ab9061179f565b80156103f85780601f106103cd576101008083540402835291602001916103f8565b820191906000526020600020905b8154815290600101906020018083116103db57829003601f168201915b5050505050905090565b600061040d82610c2f565b506000908152600460205260409020546001600160a01b031690565b60006104348261079a565b9050806001600160a01b0316836001600160a01b0316036104a65760405162461bcd60e51b815260206004820152602160248201527f4552433732313a20617070726f76616c20746f2063757272656e74206f776e656044820152603960f91b60648201526084015b60405180910390fd5b336001600160a01b03821614806104c257506104c281336102f0565b6105345760405162461bcd60e51b815260206004820152603e60248201527f4552433732313a20617070726f76652063616c6c6572206973206e6f7420746f60448201527f6b656e206f776e6572206e6f7220617070726f76656420666f7220616c6c0000606482015260840161049d565b61053e8383610c91565b505050565b6060600060075467ffffffffffffffff81111561056257610562611500565b60405190808252806020026020018201604052801561059557816020015b60608152602001906001900390816105805790505b50905060005b6007548110156105de576105ae81610615565b8282815181106105c0576105c06117d3565b602002602001018190525080806105d6906117ff565b91505061059b565b50919050565b6105ee3382610cff565b61060a5760405162461bcd60e51b815260040161049d90611818565b61053e838383610d7e565b606060006106228361079a565b9050633b9aca00816001600160a01b03163111156106e5576000838152600960209081526040808320600184529091529020805461065f9061179f565b80601f016020809104026020016040519081016040528092919081815260200182805461068b9061179f565b80156106d85780601f106106ad576101008083540402835291602001916106d8565b820191906000526020600020905b8154815290600101906020018083116106bb57829003601f168201915b5050505050915050919050565b60008381526009602090815260408083208380529091529020805461065f9061179f565b61053e83838360405180602001604052806000815250610be3565b60006008548251146107685760405162461bcd60e51b815260206004820152600d60248201526c746f6f206d616e79205552497360981b604482015260640161049d565b61077433600754610f29565b6107806007548361106b565b60078054906000610790836117ff565b9091555092915050565b6000818152600260205260408120546001600160a01b03168061036a5760405162461bcd60e51b8152602060048201526018602482015277115490cdcc8c4e881a5b9d985b1a59081d1bdad95b88125160421b604482015260640161049d565b6060600060085467ffffffffffffffff81111561081957610819611500565b60405190808252806020026020018201604052801561084c57816020015b60608152602001906001900390816108375790505b50905060005b60085481101561092e576000848152600960209081526040808320848452909152902080546108809061179f565b80601f01602080910402602001604051908101604052809291908181526020018280546108ac9061179f565b80156108f95780601f106108ce576101008083540402835291602001916108f9565b820191906000526020600020905b8154815290600101906020018083116108dc57829003601f168201915b5050505050828281518110610910576109106117d3565b60200260200101819052508080610926906117ff565b915050610852565b5092915050565b60006001600160a01b03821661099f5760405162461bcd60e51b815260206004820152602960248201527f4552433732313a2061646472657373207a65726f206973206e6f7420612076616044820152683634b21037bbb732b960b91b606482015260840161049d565b506001600160a01b031660009081526003602052604090205490565b606060006008546007546109cf9190611866565b67ffffffffffffffff8111156109e7576109e7611500565b604051908082528060200260200182016040528015610a1a57816020015b6060815260200190600190039081610a055790505b50905060005b6007548110156105de576000610a35826107fa565b905060005b600854811015610aa657818181518110610a5657610a566117d3565b6020026020010151848260085486610a6e9190611866565b610a789190611885565b81518110610a8857610a886117d3565b60200260200101819052508080610a9e906117ff565b915050610a3a565b50508080610ab3906117ff565b915050610a20565b60606000600854600754610acf9190611866565b67ffffffffffffffff811115610ae757610ae7611500565b60405190808252806020026020018201604052801561092e57816020015b6060815260200190600190039081610b055790505092915050565b60606001805461037f9061179f565b610b3a3383836110ce565b5050565b600960209081526000928352604080842090915290825290208054610b629061179f565b80601f0160208091040260200160405190810160405280929190818152602001828054610b8e9061179f565b8015610bdb5780601f10610bb057610100808354040283529160200191610bdb565b820191906000526020600020905b815481529060010190602001808311610bbe57829003601f168201915b505050505081565b610bed3383610cff565b610c095760405162461bcd60e51b815260040161049d90611818565b610c158484848461119c565b50505050565b6060610c2682610c2f565b61036a82610615565b6000818152600260205260409020546001600160a01b0316610c8e5760405162461bcd60e51b8152602060048201526018602482015277115490cdcc8c4e881a5b9d985b1a59081d1bdad95b88125160421b604482015260640161049d565b50565b600081815260046020526040902080546001600160a01b0319166001600160a01b0384169081179091558190610cc68261079a565b6001600160a01b03167f8c5be1e5ebec7d5bd14f71427d1e84f3dd0314c0f7b2291e5b200ac8c7c3b92560405160405180910390a45050565b600080610d0b8361079a565b9050806001600160a01b0316846001600160a01b03161480610d5257506001600160a01b0380821660009081526005602090815260408083209388168352929052205460ff165b80610d765750836001600160a01b0316610d6b84610402565b6001600160a01b0316145b949350505050565b826001600160a01b0316610d918261079a565b6001600160a01b031614610df55760405162461bcd60e51b815260206004820152602560248201527f4552433732313a207472616e736665722066726f6d20696e636f72726563742060448201526437bbb732b960d91b606482015260840161049d565b6001600160a01b038216610e575760405162461bcd60e51b8152602060048201526024808201527f4552433732313a207472616e7366657220746f20746865207a65726f206164646044820152637265737360e01b606482015260840161049d565b600081815260046020908152604080832080546001600160a01b03191690556001600160a01b038616835260039091528120805460019290610e9a90849061189d565b90915550506001600160a01b0382166000908152600360205260408120805460019290610ec8908490611885565b909155505060008181526002602052604080822080546001600160a01b0319166001600160a01b0386811691821790925591518493918716917fddf252ad1be2c89b69c2b068fc378daa952ba7f163c4a11628f55a4df523b3ef91a4505050565b6001600160a01b038216610f7f5760405162461bcd60e51b815260206004820181905260248201527f4552433732313a206d696e7420746f20746865207a65726f2061646472657373604482015260640161049d565b6000818152600260205260409020546001600160a01b031615610fe45760405162461bcd60e51b815260206004820152601c60248201527f4552433732313a20746f6b656e20616c7265616479206d696e74656400000000604482015260640161049d565b6001600160a01b038216600090815260036020526040812080546001929061100d908490611885565b909155505060008181526002602052604080822080546001600160a01b0319166001600160a01b03861690811790915590518392907fddf252ad1be2c89b69c2b068fc378daa952ba7f163c4a11628f55a4df523b3ef908290a45050565b60005b815181101561053e57818181518110611089576110896117d3565b60209081029190910181015160008581526009835260408082208583528452902081516110bb939192909101906112d0565b50806110c6816117ff565b91505061106e565b816001600160a01b0316836001600160a01b03160361112f5760405162461bcd60e51b815260206004820152601960248201527f4552433732313a20617070726f766520746f2063616c6c657200000000000000604482015260640161049d565b6001600160a01b03838116600081815260056020908152604080832094871680845294825291829020805460ff191686151590811790915591519182527f17307eab39ab6107e8899845ad3d59bd9653f200f220920489ca2b5937696c31910160405180910390a3505050565b6111a7848484610d7e565b6111b3848484846111cf565b610c155760405162461bcd60e51b815260040161049d906118b4565b60006001600160a01b0384163b156112c557604051630a85bd0160e11b81526001600160a01b0385169063150b7a0290611213903390899088908890600401611906565b6020604051808303816000875af192505050801561124e575060408051601f3d908101601f1916820190925261124b91810190611943565b60015b6112ab573d80801561127c576040519150601f19603f3d011682016040523d82523d6000602084013e611281565b606091505b5080516000036112a35760405162461bcd60e51b815260040161049d906118b4565b805181602001fd5b6001600160e01b031916630a85bd0160e11b149050610d76565b506001949350505050565b8280546112dc9061179f565b90600052602060002090601f0160209004810192826112fe5760008555611344565b82601f1061131757805160ff1916838001178555611344565b82800160010185558215611344579182015b82811115611344578251825591602001919060010190611329565b50611350929150611354565b5090565b5b808211156113505760008155600101611355565b6001600160e01b031981168114610c8e57600080fd5b60006020828403121561139157600080fd5b813561139c81611369565b9392505050565b6000815180845260005b818110156113c9576020818501810151868301820152016113ad565b818111156113db576000602083870101525b50601f01601f19169290920160200192915050565b60208152600061139c60208301846113a3565b60006020828403121561141557600080fd5b5035919050565b80356001600160a01b038116811461143357600080fd5b919050565b6000806040838503121561144b57600080fd5b6114548361141c565b946020939093013593505050565b6000602080830181845280855180835260408601915060408160051b870101925083870160005b828110156114b757603f198886030184526114a58583516113a3565b94509285019290850190600101611489565b5092979650505050505050565b6000806000606084860312156114d957600080fd5b6114e28461141c565b92506114f06020850161141c565b9150604084013590509250925092565b634e487b7160e01b600052604160045260246000fd5b604051601f8201601f1916810167ffffffffffffffff8111828210171561153f5761153f611500565b604052919050565b600067ffffffffffffffff83111561156157611561611500565b611574601f8401601f1916602001611516565b905082815283838301111561158857600080fd5b828260208301376000602084830101529392505050565b600060208083850312156115b257600080fd5b823567ffffffffffffffff808211156115ca57600080fd5b818501915085601f8301126115de57600080fd5b8135818111156115f0576115f0611500565b8060051b6115ff858201611516565b918252838101850191858101908984111561161957600080fd5b86860192505b8383101561166a578235858111156116375760008081fd5b8601603f81018b136116495760008081fd5b61165a8b8983013560408401611547565b835250918601919086019061161f565b9998505050505050505050565b60006020828403121561168957600080fd5b61139c8261141c565b600080604083850312156116a557600080fd5b6116ae8361141c565b9150602083013580151581146116c357600080fd5b809150509250929050565b600080604083850312156116e157600080fd5b50508035926020909101359150565b6000806000806080858703121561170657600080fd5b61170f8561141c565b935061171d6020860161141c565b925060408501359150606085013567ffffffffffffffff81111561174057600080fd5b8501601f8101871361175157600080fd5b61176087823560208401611547565b91505092959194509250565b6000806040838503121561177f57600080fd5b6117888361141c565b91506117966020840161141c565b90509250929050565b600181811c908216806117b357607f821691505b6020821081036105de57634e487b7160e01b600052602260045260246000fd5b634e487b7160e01b600052603260045260246000fd5b634e487b7160e01b600052601160045260246000fd5b600060018201611811576118116117e9565b5060010190565b6020808252602e908201527f4552433732313a2063616c6c6572206973206e6f7420746f6b656e206f776e6560408201526d1c881b9bdc88185c1c1c9bdd995960921b606082015260800190565b6000816000190483118215151615611880576118806117e9565b500290565b60008219821115611898576118986117e9565b500190565b6000828210156118af576118af6117e9565b500390565b60208082526032908201527f4552433732313a207472616e7366657220746f206e6f6e20455243373231526560408201527131b2b4bb32b91034b6b83632b6b2b73a32b960711b606082015260800190565b6001600160a01b0385811682528416602082015260408101839052608060608201819052600090611939908301846113a3565b9695505050505050565b60006020828403121561195557600080fd5b815161139c8161136956fea2646970667358221220b62db15ecc6f2d004e4a804279a335f97328d337be4bbbf832196b7ac36d0c1064736f6c634300080d0033",
    "linkReferences": {}
  }
}