{
  "abi": [
    {
      "inputs": [],
      "stateMutability": "nonpayable",
      "type": "constructor"
    },
    {
      "anonymous": false,
      "inputs": [
        {
          "indexed": true,
          "internalType": "address",
          "name": "owner",
          "type": "address"
        },
        {
          "indexed": true,
          "internalType": "address",
          "name": "approved",
          "type": "address"
        },
        {
          "indexed": true,
          "internalType": "uint256",
          "name": "tokenId",
          "type": "uint256"
        }
      ],
      "name": "Approval",
      "type": "event"
    },
    {
      "anonymous": false,
      "inputs": [
        {
          "indexed": true,
          "internalType": "address",
          "name": "owner",
          "type": "address"
        },
        {
          "indexed": true,
          "internalType": "address",
          "name": "operator",
          "type": "address"
        },
        {
          "indexed": false,
          "internalType": "bool",
          "name": "approved",
          "type": "bool"
        }
      ],
      "name": "ApprovalForAll",
      "type": "event"
    },
    {
      "anonymous": false,
      "inputs": [
        {
          "indexed": true,
          "internalType": "address",
          "name": "from",
          "type": "address"
        },
        {
          "indexed": true,
          "internalType": "address",
          "name": "to",
          "type": "address"
        },
        {
          "indexed": true,
          "internalType": "uint256",
          "name": "tokenId",
          "type": "uint256"
        }
      ],
      "name": "Transfer",
      "type": "event"
    },
    {
      "inputs": [],
      "name": "URIsPerToken",
      "outputs": [
        {
          "internalType": "uint256",
          "name": "",
          "type": "uint256"
        }
      ],
      "stateMutability": "view",
      "type": "function"
    },
    {
      "inputs": [
        {
          "internalType": "address",
          "name": "to",
          "type": "address"
        },
        {
          "internalType": "uint256",
          "name": "tokenId",
          "type": "uint256"
        }
      ],
      "name": "approve",
      "outputs": [],
      "stateMutability": "nonpayable",
      "type": "function"
    },
    {
      "inputs": [
        {
          "internalType": "address",
          "name": "owner",
          "type": "address"
        }
      ],
      "name": "balanceOf",
      "outputs": [
        {
          "internalType": "uint256",
          "name": "",
          "type": "uint256"
        }
      ],
      "stateMutability": "view",
      "type": "function"
    },
    {
      "inputs": [],
      "name": "currentId",
      "outputs": [
        {
          "internalType": "uint256",
          "name": "",
          "type": "uint256"
        }
      ],
      "stateMutability": "view",
      "type": "function"
    },
    {
      "inputs": [
        {
          "internalType": "uint256",
          "name": "",
          "type": "uint256"
        },
        {
          "internalType": "uint256",
          "name": "",
          "type": "uint256"
        }
      ],
      "name": "currentURI",
      "outputs": [
        {
          "internalType": "string",
          "name": "",
          "type": "string"
        }
      ],
      "stateMutability": "view",
      "type": "function"
    },
    {
      "inputs": [],
      "name": "getAllTokenURIs",
      "outputs": [
        {
          "internalType": "string[]",
          "name": "",
          "type": "string[]"
        }
      ],
      "stateMutability": "view",
      "type": "function"
    },
    {
      "inputs": [
        {
          "internalType": "uint256",
          "name": "tokenId",
          "type": "uint256"
        }
      ],
      "name": "getApproved",
      "outputs": [
        {
          "internalType": "address",
          "name": "",
          "type": "address"
        }
      ],
      "stateMutability": "view",
      "type": "function"
    },
    {
      "inputs": [
        {
          "internalType": "uint256",
          "name": "tokenId",
          "type": "uint256"
        }
      ],
      "name": "getTokenURI",
      "outputs": [
        {
          "internalType": "string",
          "name": "",
          "type": "string"
        }
      ],
      "stateMutability": "view",
      "type": "function"
    },
    {
      "inputs": [
        {
          "internalType": "uint256",
          "name": "tokenId",
          "type": "uint256"
        }
      ],
      "name": "getTokenURIs",
      "outputs": [
        {
          "internalType": "string[]",
          "name": "",
          "type": "string[]"
        }
      ],
      "stateMutability": "view",
      "type": "function"
    },
    {
      "inputs": [
        {
          "internalType": "address",
          "name": "owner",
          "type": "address"
        },
        {
          "internalType": "address",
          "name": "operator",
          "type": "address"
        }
      ],
      "name": "isApprovedForAll",
      "outputs": [
        {
          "internalType": "bool",
          "name": "",
          "type": "bool"
        }
      ],
      "stateMutability": "view",
      "type": "function"
    },
    {
      "inputs": [
        {
          "internalType": "string[]",
          "name": "tokenURIs",
          "type": "string[]"
        }
      ],
      "name": "mint",
      "outputs": [
        {
          "internalType": "uint256",
          "name": "",
          "type": "uint256"
        }
      ],
      "stateMutability": "nonpayable",
      "type": "function"
    },
    {
      "inputs": [],
      "name": "name",
      "outputs": [
        {
          "internalType": "string",
          "name": "",
          "type": "string"
        }
      ],
      "stateMutability": "view",
      "type": "function"
    },
    {
      "inputs": [
        {
          "internalType": "uint256",
          "name": "tokenId",
          "type": "uint256"
        }
      ],
      "name": "ownerOf",
      "outputs": [
        {
          "internalType": "address",
          "name": "",
          "type": "address"
        }
      ],
      "stateMutability": "view",
      "type": "function"
    },
    {
      "inputs": [
        {
          "internalType": "address",
          "name": "from",
          "type": "address"
        },
        {
          "internalType": "address",
          "name": "to",
          "type": "address"
        },
        {
          "internalType": "uint256",
          "name": "tokenId",
          "type": "uint256"
        }
      ],
      "name": "safeTransferFrom",
      "outputs": [],
      "stateMutability": "nonpayable",
      "type": "function"
    },
    {
      "inputs": [
        {
          "internalType": "address",
          "name": "from",
          "type": "address"
        },
        {
          "internalType": "address",
          "name": "to",
          "type": "address"
        },
        {
          "internalType": "uint256",
          "name": "tokenId",
          "type": "uint256"
        },
        {
          "internalType": "bytes",
          "name": "data",
          "type": "bytes"
        }
      ],
      "name": "safeTransferFrom",
      "outputs": [],
      "stateMutability": "nonpayable",
      "type": "function"
    },
    {
      "inputs": [
        {
          "internalType": "address",
          "name": "operator",
          "type": "address"
        },
        {
          "internalType": "bool",
          "name": "approved",
          "type": "bool"
        }
      ],
      "name": "setApprovalForAll",
      "outputs": [],
      "stateMutability": "nonpayable",
      "type": "function"
    },
    {
      "inputs": [],
      "name": "size",
      "outputs": [
        {
          "internalType": "string[]",
          "name": "",
          "type": "string[]"
        }
      ],
      "stateMutability": "view",
      "type": "function"
    },
    {
      "inputs": [
        {
          "internalType": "bytes4",
          "name": "interfaceId",
          "type": "bytes4"
        }
      ],
      "name": "supportsInterface",
      "outputs": [
        {
          "internalType": "bool",
          "name": "",
          "type": "bool"
        }
      ],
      "stateMutability": "view",
      "type": "function"
    },
    {
      "inputs": [],
      "name": "symbol",
      "outputs": [
        {
          "internalType": "string",
          "name": "",
          "type": "string"
        }
      ],
      "stateMutability": "view",
      "type": "function"
    },
    {
      "inputs": [
        {
          "internalType": "uint256",
          "name": "tokenId",
          "type": "uint256"
        }
      ],
      "name": "tokenURI",
      "outputs": [
        {
          "internalType": "string",
          "name": "",
          "type": "string"
        }
      ],
      "stateMutability": "view",
      "type": "function"
    },
    {
      "inputs": [
        {
          "internalType": "address",
          "name": "from",
          "type": "address"
        },
        {
          "internalType": "address",
          "name": "to",
          "type": "address"
        },
        {
          "internalType": "uint256",
          "name": "tokenId",
          "type": "uint256"
        }
      ],
      "name": "transferFrom",
      "outputs": [],
      "stateMutability": "nonpayable",
      "type": "function"
    }
  ],
  "bytecode": {
    "object": "0x60806040523480156200001157600080fd5b5060408051808201825260048152631d13919560e21b602080830191825283518085019094526009845268054494d455354414d560bc1b9084015281516018939162000061916000919062000083565b5080516200007790600190602084019062000083565b50505060085562000165565b828054620000919062000129565b90600052602060002090601f016020900481019282620000b5576000855562000100565b82601f10620000d057805160ff191683800117855562000100565b8280016001018555821562000100579182015b8281111562000100578251825591602001919060010190620000e3565b506200010e92915062000112565b5090565b5b808211156200010e576000815560010162000113565b600181811c908216806200013e57607f821691505b6020821081036200015f57634e487b7160e01b600052602260045260246000fd5b50919050565b61190c80620001756000396000f3fe608060405234801561001057600080fd5b50600436106101375760003560e01c806370a08231116100b8578063b0da7ba51161007c578063b0da7ba514610284578063b88d4fde14610297578063c87b56dd146102aa578063d8e1b3aa146102bd578063e00dd161146102c6578063e985e9c5146102cf57600080fd5b806370a082311461024657806389fde7af14610259578063949d225d1461026157806395d89b4114610269578063a22cb4651461027157600080fd5b80633bb3a24d116100ff5780633bb3a24d146101cc57806342842e0e146101df5780635768f271146101f25780636352211e14610213578063642241201461022657600080fd5b806301ffc9a71461013c57806306fdde0314610164578063081812fc14610179578063095ea7b3146101a457806323b872dd146101b9575b600080fd5b61014f61014a3660046112b7565b61030b565b60405190151581526020015b60405180910390f35b61016c61035d565b60405161015b9190611328565b61018c61018736600461133b565b6103ef565b6040516001600160a01b03909116815260200161015b565b6101b76101b2366004611370565b610416565b005b6101b76101c736600461139a565b610530565b61016c6101da36600461133b565b610561565b6101b76101ed36600461139a565b61062b565b610205610200366004611475565b610646565b60405190815260200161015b565b61018c61022136600461133b565b6106cc565b61023961023436600461133b565b61072c565b60405161015b919061154d565b6102056102543660046115af565b610867565b6102396108ed565b6102396109f3565b61016c610a58565b6101b761027f3660046115ca565b610a67565b61016c610292366004611606565b610a76565b6101b76102a5366004611628565b610b1b565b61016c6102b836600461133b565b610b53565b61020560085481565b61020560075481565b61014f6102dd3660046116a4565b6001600160a01b03918216600090815260056020908152604080832093909416825291909152205460ff1690565b60006001600160e01b031982166380ac58cd60e01b148061033c57506001600160e01b03198216635b5e139f60e01b145b8061035757506301ffc9a760e01b6001600160e01b03198316145b92915050565b60606000805461036c906116d7565b80601f0160208091040260200160405190810160405280929190818152602001828054610398906116d7565b80156103e55780601f106103ba576101008083540402835291602001916103e5565b820191906000526020600020905b8154815290600101906020018083116103c857829003601f168201915b5050505050905090565b60006103fa82610b67565b506000908152600460205260409020546001600160a01b031690565b6000610421826106cc565b9050806001600160a01b0316836001600160a01b0316036104935760405162461bcd60e51b815260206004820152602160248201527f4552433732313a20617070726f76616c20746f2063757272656e74206f776e656044820152603960f91b60648201526084015b60405180910390fd5b336001600160a01b03821614806104af57506104af81336102dd565b6105215760405162461bcd60e51b815260206004820152603e60248201527f4552433732313a20617070726f76652063616c6c6572206973206e6f7420746f60448201527f6b656e206f776e6572206e6f7220617070726f76656420666f7220616c6c0000606482015260840161048a565b61052b8383610bc9565b505050565b61053a3382610c37565b6105565760405162461bcd60e51b815260040161048a9061170b565b61052b838383610cb6565b606060006018610573610e1042611785565b61057d9190611799565b600084815260096020908152604080832084845290915290208054919250906105a5906116d7565b80601f01602080910402602001604051908101604052809291908181526020018280546105d1906116d7565b801561061e5780601f106105f35761010080835404028352916020019161061e565b820191906000526020600020905b81548152906001019060200180831161060157829003601f168201915b5050505050915050919050565b61052b83838360405180602001604052806000815250610b1b565b600060085482511461069a5760405162461bcd60e51b815260206004820152601a60248201527f77726f6e6720616d6f756e74206f6620746f6b656e5552497321000000000000604482015260640161048a565b6106a633600754610e61565b6106b260075483610fa3565b600780549060006106c2836117ad565b9091555092915050565b6000818152600260205260408120546001600160a01b0316806103575760405162461bcd60e51b8152602060048201526018602482015277115490cdcc8c4e881a5b9d985b1a59081d1bdad95b88125160421b604482015260640161048a565b6060600060085467ffffffffffffffff81111561074b5761074b6113d6565b60405190808252806020026020018201604052801561077e57816020015b60608152602001906001900390816107695790505b50905060005b600854811015610860576000848152600960209081526040808320848452909152902080546107b2906116d7565b80601f01602080910402602001604051908101604052809291908181526020018280546107de906116d7565b801561082b5780601f106108005761010080835404028352916020019161082b565b820191906000526020600020905b81548152906001019060200180831161080e57829003601f168201915b5050505050828281518110610842576108426117c6565b60200260200101819052508080610858906117ad565b915050610784565b5092915050565b60006001600160a01b0382166108d15760405162461bcd60e51b815260206004820152602960248201527f4552433732313a2061646472657373207a65726f206973206e6f7420612076616044820152683634b21037bbb732b960b91b606482015260840161048a565b506001600160a01b031660009081526003602052604090205490565b6060600060085460075461090191906117dc565b67ffffffffffffffff811115610919576109196113d6565b60405190808252806020026020018201604052801561094c57816020015b60608152602001906001900390816109375790505b50905060005b6007548110156109ed5760006109678261072c565b905060005b6008548110156109d857818181518110610988576109886117c6565b60200260200101518482600854866109a091906117dc565b6109aa91906117fb565b815181106109ba576109ba6117c6565b602002602001018190525080806109d0906117ad565b91505061096c565b505080806109e5906117ad565b915050610952565b50919050565b60606000600854600754610a0791906117dc565b67ffffffffffffffff811115610a1f57610a1f6113d6565b60405190808252806020026020018201604052801561086057816020015b6060815260200190600190039081610a3d5790505092915050565b60606001805461036c906116d7565b610a72338383611006565b5050565b600960209081526000928352604080842090915290825290208054610a9a906116d7565b80601f0160208091040260200160405190810160405280929190818152602001828054610ac6906116d7565b8015610b135780601f10610ae857610100808354040283529160200191610b13565b820191906000526020600020905b815481529060010190602001808311610af657829003601f168201915b505050505081565b610b253383610c37565b610b415760405162461bcd60e51b815260040161048a9061170b565b610b4d848484846110d4565b50505050565b6060610b5e82610b67565b61035782610561565b6000818152600260205260409020546001600160a01b0316610bc65760405162461bcd60e51b8152602060048201526018602482015277115490cdcc8c4e881a5b9d985b1a59081d1bdad95b88125160421b604482015260640161048a565b50565b600081815260046020526040902080546001600160a01b0319166001600160a01b0384169081179091558190610bfe826106cc565b6001600160a01b03167f8c5be1e5ebec7d5bd14f71427d1e84f3dd0314c0f7b2291e5b200ac8c7c3b92560405160405180910390a45050565b600080610c43836106cc565b9050806001600160a01b0316846001600160a01b03161480610c8a57506001600160a01b0380821660009081526005602090815260408083209388168352929052205460ff165b80610cae5750836001600160a01b0316610ca3846103ef565b6001600160a01b0316145b949350505050565b826001600160a01b0316610cc9826106cc565b6001600160a01b031614610d2d5760405162461bcd60e51b815260206004820152602560248201527f4552433732313a207472616e736665722066726f6d20696e636f72726563742060448201526437bbb732b960d91b606482015260840161048a565b6001600160a01b038216610d8f5760405162461bcd60e51b8152602060048201526024808201527f4552433732313a207472616e7366657220746f20746865207a65726f206164646044820152637265737360e01b606482015260840161048a565b600081815260046020908152604080832080546001600160a01b03191690556001600160a01b038616835260039091528120805460019290610dd2908490611813565b90915550506001600160a01b0382166000908152600360205260408120805460019290610e009084906117fb565b909155505060008181526002602052604080822080546001600160a01b0319166001600160a01b0386811691821790925591518493918716917fddf252ad1be2c89b69c2b068fc378daa952ba7f163c4a11628f55a4df523b3ef91a4505050565b6001600160a01b038216610eb75760405162461bcd60e51b815260206004820181905260248201527f4552433732313a206d696e7420746f20746865207a65726f2061646472657373604482015260640161048a565b6000818152600260205260409020546001600160a01b031615610f1c5760405162461bcd60e51b815260206004820152601c60248201527f4552433732313a20746f6b656e20616c7265616479206d696e74656400000000604482015260640161048a565b6001600160a01b0382166000908152600360205260408120805460019290610f459084906117fb565b909155505060008181526002602052604080822080546001600160a01b0319166001600160a01b03861690811790915590518392907fddf252ad1be2c89b69c2b068fc378daa952ba7f163c4a11628f55a4df523b3ef908290a45050565b60005b815181101561052b57818181518110610fc157610fc16117c6565b6020908102919091018101516000858152600983526040808220858352845290208151610ff393919290910190611208565b5080610ffe816117ad565b915050610fa6565b816001600160a01b0316836001600160a01b0316036110675760405162461bcd60e51b815260206004820152601960248201527f4552433732313a20617070726f766520746f2063616c6c657200000000000000604482015260640161048a565b6001600160a01b03838116600081815260056020908152604080832094871680845294825291829020805460ff191686151590811790915591519182527f17307eab39ab6107e8899845ad3d59bd9653f200f220920489ca2b5937696c31910160405180910390a3505050565b6110df848484610cb6565b6110eb84848484611107565b610b4d5760405162461bcd60e51b815260040161048a9061182a565b60006001600160a01b0384163b156111fd57604051630a85bd0160e11b81526001600160a01b0385169063150b7a029061114b90339089908890889060040161187c565b6020604051808303816000875af1925050508015611186575060408051601f3d908101601f19168201909252611183918101906118b9565b60015b6111e3573d8080156111b4576040519150601f19603f3d011682016040523d82523d6000602084013e6111b9565b606091505b5080516000036111db5760405162461bcd60e51b815260040161048a9061182a565b805181602001fd5b6001600160e01b031916630a85bd0160e11b149050610cae565b506001949350505050565b828054611214906116d7565b90600052602060002090601f016020900481019282611236576000855561127c565b82601f1061124f57805160ff191683800117855561127c565b8280016001018555821561127c579182015b8281111561127c578251825591602001919060010190611261565b5061128892915061128c565b5090565b5b80821115611288576000815560010161128d565b6001600160e01b031981168114610bc657600080fd5b6000602082840312156112c957600080fd5b81356112d4816112a1565b9392505050565b6000815180845260005b81811015611301576020818501810151868301820152016112e5565b81811115611313576000602083870101525b50601f01601f19169290920160200192915050565b6020815260006112d460208301846112db565b60006020828403121561134d57600080fd5b5035919050565b80356001600160a01b038116811461136b57600080fd5b919050565b6000806040838503121561138357600080fd5b61138c83611354565b946020939093013593505050565b6000806000606084860312156113af57600080fd5b6113b884611354565b92506113c660208501611354565b9150604084013590509250925092565b634e487b7160e01b600052604160045260246000fd5b604051601f8201601f1916810167ffffffffffffffff81118282101715611415576114156113d6565b604052919050565b600067ffffffffffffffff831115611437576114376113d6565b61144a601f8401601f19166020016113ec565b905082815283838301111561145e57600080fd5b828260208301376000602084830101529392505050565b6000602080838503121561148857600080fd5b823567ffffffffffffffff808211156114a057600080fd5b818501915085601f8301126114b457600080fd5b8135818111156114c6576114c66113d6565b8060051b6114d58582016113ec565b91825283810185019185810190898411156114ef57600080fd5b86860192505b838310156115405782358581111561150d5760008081fd5b8601603f81018b1361151f5760008081fd5b6115308b898301356040840161141d565b83525091860191908601906114f5565b9998505050505050505050565b6000602080830181845280855180835260408601915060408160051b870101925083870160005b828110156115a257603f198886030184526115908583516112db565b94509285019290850190600101611574565b5092979650505050505050565b6000602082840312156115c157600080fd5b6112d482611354565b600080604083850312156115dd57600080fd5b6115e683611354565b9150602083013580151581146115fb57600080fd5b809150509250929050565b6000806040838503121561161957600080fd5b50508035926020909101359150565b6000806000806080858703121561163e57600080fd5b61164785611354565b935061165560208601611354565b925060408501359150606085013567ffffffffffffffff81111561167857600080fd5b8501601f8101871361168957600080fd5b6116988782356020840161141d565b91505092959194509250565b600080604083850312156116b757600080fd5b6116c083611354565b91506116ce60208401611354565b90509250929050565b600181811c908216806116eb57607f821691505b6020821081036109ed57634e487b7160e01b600052602260045260246000fd5b6020808252602e908201527f4552433732313a2063616c6c6572206973206e6f7420746f6b656e206f776e6560408201526d1c881b9bdc88185c1c1c9bdd995960921b606082015260800190565b634e487b7160e01b600052601260045260246000fd5b634e487b7160e01b600052601160045260246000fd5b60008261179457611794611759565b500490565b6000826117a8576117a8611759565b500690565b6000600182016117bf576117bf61176f565b5060010190565b634e487b7160e01b600052603260045260246000fd5b60008160001904831182151516156117f6576117f661176f565b500290565b6000821982111561180e5761180e61176f565b500190565b6000828210156118255761182561176f565b500390565b60208082526032908201527f4552433732313a207472616e7366657220746f206e6f6e20455243373231526560408201527131b2b4bb32b91034b6b83632b6b2b73a32b960711b606082015260800190565b6001600160a01b03858116825284166020820152604081018390526080606082018190526000906118af908301846112db565b9695505050505050565b6000602082840312156118cb57600080fd5b81516112d4816112a156fea26469706673582212209c927b0415bedef46dcde14acd7ef5d6a7c76fa722ca69c6cfd8687c5c66b14664736f6c634300080d0033",
    "linkReferences": {}
  }
}