{
  "abi": [
    {
      "inputs": [],
      "stateMutability": "nonpayable",
      "type": "constructor"
    },
    {
      "anonymous": false,
      "inputs": [
        {
          "indexed": true,
          "internalType": "address",
          "name": "collection",
          "type": "address"
        },
        {
          "indexed": true,
          "internalType": "uint256",
          "name": "tokenId",
          "type": "uint256"
        },
        {
          "indexed": true,
          "internalType": "uint256",
          "name": "price",
          "type": "uint256"
        },
        {
          "indexed": false,
          "internalType": "address",
          "name": "signer",
          "type": "address"
        }
      ],
      "name": "MakerAsk",
      "type": "event"
    },
    {
      "anonymous": false,
      "inputs": [
        {
          "indexed": true,
          "internalType": "address",
          "name": "taker",
          "type": "address"
        },
        {
          "indexed": true,
          "internalType": "address",
          "name": "maker",
          "type": "address"
        },
        {
          "indexed": true,
          "internalType": "uint256",
          "name": "tokenId",
          "type": "uint256"
        },
        {
          "indexed": false,
          "internalType": "uint256",
          "name": "price",
          "type": "uint256"
        }
      ],
      "name": "TakerBid",
      "type": "event"
    },
    {
      "inputs": [
        {
          "components": [
            {
              "internalType": "address",
              "name": "signer",
              "type": "address"
            },
            {
              "internalType": "address",
              "name": "collection",
              "type": "address"
            },
            {
              "internalType": "uint256",
              "name": "price",
              "type": "uint256"
            },
            {
              "internalType": "uint256",
              "name": "tokenId",
              "type": "uint256"
            },
            {
              "internalType": "uint256",
              "name": "startTime",
              "type": "uint256"
            },
            {
              "internalType": "uint256",
              "name": "endTime",
              "type": "uint256"
            }
          ],
          "internalType": "struct OrderTypes.MakerOrder",
          "name": "makerAsk",
          "type": "tuple"
        }
      ],
      "name": "createMakerAsk",
      "outputs": [],
      "stateMutability": "nonpayable",
      "type": "function"
    },
    {
      "inputs": [],
      "name": "deployer",
      "outputs": [
        {
          "internalType": "address",
          "name": "",
          "type": "address"
        }
      ],
      "stateMutability": "view",
      "type": "function"
    },
    {
      "inputs": [
        {
          "internalType": "address",
          "name": "collection",
          "type": "address"
        },
        {
          "internalType": "uint256",
          "name": "id",
          "type": "uint256"
        }
      ],
      "name": "getMakerAsk",
      "outputs": [
        {
          "components": [
            {
              "internalType": "address",
              "name": "signer",
              "type": "address"
            },
            {
              "internalType": "address",
              "name": "collection",
              "type": "address"
            },
            {
              "internalType": "uint256",
              "name": "price",
              "type": "uint256"
            },
            {
              "internalType": "uint256",
              "name": "tokenId",
              "type": "uint256"
            },
            {
              "internalType": "uint256",
              "name": "startTime",
              "type": "uint256"
            },
            {
              "internalType": "uint256",
              "name": "endTime",
              "type": "uint256"
            }
          ],
          "internalType": "struct OrderTypes.MakerOrder",
          "name": "",
          "type": "tuple"
        }
      ],
      "stateMutability": "view",
      "type": "function"
    },
    {
      "inputs": [
        {
          "internalType": "address",
          "name": "collection",
          "type": "address"
        }
      ],
      "name": "getMakerAsksByCollection",
      "outputs": [
        {
          "internalType": "uint256[2][]",
          "name": "",
          "type": "uint256[2][]"
        }
      ],
      "stateMutability": "view",
      "type": "function"
    },
    {
      "inputs": [
        {
          "internalType": "address",
          "name": "",
          "type": "address"
        },
        {
          "internalType": "uint256",
          "name": "",
          "type": "uint256"
        }
      ],
      "name": "makerAskByCollectionAndId",
      "outputs": [
        {
          "internalType": "address",
          "name": "signer",
          "type": "address"
        },
        {
          "internalType": "address",
          "name": "collection",
          "type": "address"
        },
        {
          "internalType": "uint256",
          "name": "price",
          "type": "uint256"
        },
        {
          "internalType": "uint256",
          "name": "tokenId",
          "type": "uint256"
        },
        {
          "internalType": "uint256",
          "name": "startTime",
          "type": "uint256"
        },
        {
          "internalType": "uint256",
          "name": "endTime",
          "type": "uint256"
        }
      ],
      "stateMutability": "view",
      "type": "function"
    },
    {
      "inputs": [
        {
          "internalType": "address",
          "name": "",
          "type": "address"
        }
      ],
      "name": "makerAskCountByCollection",
      "outputs": [
        {
          "internalType": "uint256",
          "name": "",
          "type": "uint256"
        }
      ],
      "stateMutability": "view",
      "type": "function"
    },
    {
      "inputs": [
        {
          "internalType": "address",
          "name": "",
          "type": "address"
        }
      ],
      "name": "makerAskUpperLimitByCollection",
      "outputs": [
        {
          "internalType": "uint256",
          "name": "",
          "type": "uint256"
        }
      ],
      "stateMutability": "view",
      "type": "function"
    },
    {
      "inputs": [
        {
          "components": [
            {
              "internalType": "address",
              "name": "taker",
              "type": "address"
            },
            {
              "internalType": "uint256",
              "name": "price",
              "type": "uint256"
            },
            {
              "internalType": "address",
              "name": "collection",
              "type": "address"
            },
            {
              "internalType": "uint256",
              "name": "tokenId",
              "type": "uint256"
            }
          ],
          "internalType": "struct OrderTypes.TakerOrder",
          "name": "takerBid",
          "type": "tuple"
        }
      ],
      "name": "matchAskWithTakerBid",
      "outputs": [],
      "stateMutability": "payable",
      "type": "function"
    }
  ],
  "bytecode": {
    "object": "0x608060405234801561001057600080fd5b50600080546001600160a01b03191633179055610f4e806100326000396000f3fe60806040526004361061007b5760003560e01c8063a5d9ccba1161004e578063a5d9ccba146101b7578063bc8c4acb146101d9578063c9f5ae7b1461024e578063d5f394881461026157600080fd5b8063049ed38d14610080578063620bcebe146100c05780638768df58146100ed5780639fabf4381461018a575b600080fd5b34801561008c57600080fd5b506100ad61009b366004610d2f565b60016020526000908152604090205481565b6040519081526020015b60405180910390f35b3480156100cc57600080fd5b506100ad6100db366004610d2f565b60026020526000908152604090205481565b3480156100f957600080fd5b50610152610108366004610d4c565b600360208181526000938452604080852090915291835291208054600182015460028301549383015460048401546005909401546001600160a01b03938416959390921693909186565b604080516001600160a01b039788168152969095166020870152938501929092526060840152608083015260a082015260c0016100b7565b34801561019657600080fd5b506101aa6101a5366004610d2f565b610299565b6040516100b79190610d78565b3480156101c357600080fd5b506101d76101d2366004610de1565b61042b565b005b3480156101e557600080fd5b506101f96101f4366004610d4c565b6106ec565b6040516100b7919081516001600160a01b0390811682526020808401519091169082015260408083015190820152606080830151908201526080808301519082015260a0918201519181019190915260c00190565b6101d761025c366004610df9565b6107a6565b34801561026d57600080fd5b50600054610281906001600160a01b031681565b6040516001600160a01b0390911681526020016100b7565b6001600160a01b03811660009081526002602090815260408083205460019092528220546060928167ffffffffffffffff8111156102d9576102d9610e0b565b60405190808252806020026020018201604052801561031257816020015b6102ff610cf9565b8152602001906001900390816102f75790505b5090506000805b848211610420576001600160a01b038088166000908152600360208181526040808420878552825292839020835160c08101855281548616815260018201549095169185018290526002810154938501939093529082015460608401526004820154608084015260059091015460a08301521561040d57806060015181604001518584815181106103ac576103ac610e21565b60200260200101516000600281106103c6576103c6610e21565b602002018685815181106103dc576103dc610e21565b60200260200101516001600281106103f6576103f6610e21565b6020020191909152528161040981610e4d565b9250505b8261041781610e4d565b93505050610319565b509095945050505050565b6104386020820182610d2f565b6001600160a01b0316336001600160a01b03161461049d5760405162461bcd60e51b815260206004820152601860248201527f6d616b6572206d757374206265207468652073656e646572000000000000000060448201526064015b60405180910390fd5b60006104af6040830160208401610d2f565b6040516331a9108f60e11b8152606084013560048201526001600160a01b039190911690636352211e90602401602060405180830381865afa1580156104f9573d6000803e3d6000fd5b505050506040513d601f19601f8201168201806040525081019061051d9190610e66565b9050336001600160a01b038216146105775760405162461bcd60e51b815260206004820152601760248201527f6d616b6572206d75737420626520746865206f776e65720000000000000000006044820152606401610494565b816003600061058c6040840160208501610d2f565b6001600160a01b03168152602080820192909252604090810160009081206060870135825290925290206105c08282610ea3565b50600090506002816105d86040860160208701610d2f565b6001600160a01b03166001600160a01b03168152602001908152602001600020549050808360600135111561063b576060830135600260006106206040870160208801610d2f565b6001600160a01b031681526020810191909152604001600020555b6001600061064f6040860160208701610d2f565b6001600160a01b031681526020810191909152604001600090812080549161067683610e4d565b9091555050604083018035906060850135906106959060208701610d2f565b6001600160a01b03167f9ac5920bc2b416fb77b79a4e3f7fa357b51712d1efef73cad6fcb5819d7830166106cc6020880188610d2f565b6040516001600160a01b03909116815260200160405180910390a4505050565b6107376040518060c0016040528060006001600160a01b0316815260200160006001600160a01b03168152602001600081526020016000815260200160008152602001600081525090565b506001600160a01b03918216600090815260036020818152604080842094845293815291839020835160c081018552815486168152600182015490951692850192909252600282015492840192909252908101546060830152600481015460808301526005015460a082015290565b6107b36020820182610d2f565b6001600160a01b0316336001600160a01b0316146108135760405162461bcd60e51b815260206004820152601f60248201527f4f726465723a2054616b6572206d757374206265207468652073656e646572006044820152606401610494565b60006003816108286060850160408601610d2f565b6001600160a01b03908116825260208083019390935260409182016000908120606080880135835290855290839020835160c081018552815484168082526001830154909416958101959095526002810154938501939093526003830154908401526004820154608084015260059091015460a08301529091506108ee5760405162461bcd60e51b815260206004820152601a60248201527f4f726465723a20546f6b656e206973206e6f74206c69737465640000000000006044820152606401610494565b6108fb6020830183610d2f565b6001600160a01b031681600001516001600160a01b0316036109715760405162461bcd60e51b815260206004820152602960248201527f4f726465723a204d616b657220616e642054616b65722063616e6e6f74206265604482015268207468652073616d6560b81b6064820152608401610494565b816020013534146109d05760405162461bcd60e51b815260206004820152602360248201527f4f726465723a204e6f7420656e6f756768203c6e61746976652063757272656e60448201526231bc9f60e91b6064820152608401610494565b60006109dc8383610c12565b905080610a2b5760405162461bcd60e51b815260206004820152601b60248201527f53747261746567793a20457865637574696f6e20696e76616c696400000000006044820152606401610494565b81516040516000916001600160a01b03169034908381818185875af1925050503d8060008114610a77576040519150601f19603f3d011682016040523d82523d6000602084013e610a7c565b606091505b5050905080610ac55760405162461bcd60e51b81526020600482015260156024820152743330b4b632b21032ba3432b9103a3930b739b332b960591b6044820152606401610494565b8251610af190610ad86020870187610d2f565b60608701803590610aec9060408a01610d2f565b610c89565b82516060850135906001600160a01b0316610b0f6020870187610d2f565b6001600160a01b03167fe07841b3b66aa3cf104926838e291cf5f51fab97ba83637607b3f430a9588cdd8760200135604051610b4d91815260200190565b60405180910390a460016000610b696060870160408801610d2f565b6001600160a01b0316815260208101919091526040016000908120805491610b9083610f01565b90915550600390506000610baa6060870160408801610d2f565b6001600160a01b0316815260208082019290925260409081016000908120606090970135815295909152842080546001600160a01b03199081168255600182018054909116905560028101859055600381018590556004810185905560050193909355505050565b600082602001358260400151148015610c32575082606001358260600151145b8015610c625750610c496060840160408501610d2f565b6001600160a01b031682602001516001600160a01b0316145b8015610c72575042826080015111155b8015610c825750428260a0015110155b9392505050565b604051632142170760e11b81526001600160a01b0385811660048301528481166024830152604482018490528216906342842e0e90606401600060405180830381600087803b158015610cdb57600080fd5b505af1158015610cef573d6000803e3d6000fd5b5050505050505050565b60405180604001604052806002906020820280368337509192915050565b6001600160a01b0381168114610d2c57600080fd5b50565b600060208284031215610d4157600080fd5b8135610c8281610d17565b60008060408385031215610d5f57600080fd5b8235610d6a81610d17565b946020939093013593505050565b60208082528251828201819052600091906040908185019086840185805b83811015610dd357825185835b6002811015610dc057825182529189019190890190600101610da3565b5050509385019391860191600101610d96565b509298975050505050505050565b600060c08284031215610df357600080fd5b50919050565b600060808284031215610df357600080fd5b634e487b7160e01b600052604160045260246000fd5b634e487b7160e01b600052603260045260246000fd5b634e487b7160e01b600052601160045260246000fd5b600060018201610e5f57610e5f610e37565b5060010190565b600060208284031215610e7857600080fd5b8151610c8281610d17565b80546001600160a01b0319166001600160a01b0392909216919091179055565b8135610eae81610d17565b610eb88183610e83565b506020820135610ec781610d17565b610ed48160018401610e83565b5060408201356002820155606082013560038201556080820135600482015560a082013560058201555050565b600081610f1057610f10610e37565b50600019019056fea2646970667358221220a8cef61a748f6ee3552798fafc2164e8d8eefc272818fd06179fed5c7129245d64736f6c634300080d0033",
    "linkReferences": {}
  }
}