{
  "abi": [
    {
      "inputs": [],
      "stateMutability": "nonpayable",
      "type": "constructor"
    },
    {
      "anonymous": false,
      "inputs": [
        {
          "indexed": true,
          "internalType": "address",
          "name": "owner",
          "type": "address"
        },
        {
          "indexed": true,
          "internalType": "address",
          "name": "approved",
          "type": "address"
        },
        {
          "indexed": true,
          "internalType": "uint256",
          "name": "tokenId",
          "type": "uint256"
        }
      ],
      "name": "Approval",
      "type": "event"
    },
    {
      "anonymous": false,
      "inputs": [
        {
          "indexed": true,
          "internalType": "address",
          "name": "owner",
          "type": "address"
        },
        {
          "indexed": true,
          "internalType": "address",
          "name": "operator",
          "type": "address"
        },
        {
          "indexed": false,
          "internalType": "bool",
          "name": "approved",
          "type": "bool"
        }
      ],
      "name": "ApprovalForAll",
      "type": "event"
    },
    {
      "anonymous": false,
      "inputs": [
        {
          "indexed": true,
          "internalType": "address",
          "name": "from",
          "type": "address"
        },
        {
          "indexed": true,
          "internalType": "address",
          "name": "to",
          "type": "address"
        },
        {
          "indexed": true,
          "internalType": "uint256",
          "name": "tokenId",
          "type": "uint256"
        }
      ],
      "name": "Transfer",
      "type": "event"
    },
    {
      "inputs": [
        {
          "internalType": "address",
          "name": "to",
          "type": "address"
        },
        {
          "internalType": "uint256",
          "name": "tokenId",
          "type": "uint256"
        }
      ],
      "name": "approve",
      "outputs": [],
      "stateMutability": "nonpayable",
      "type": "function"
    },
    {
      "inputs": [
        {
          "internalType": "address",
          "name": "owner",
          "type": "address"
        }
      ],
      "name": "balanceOf",
      "outputs": [
        {
          "internalType": "uint256",
          "name": "",
          "type": "uint256"
        }
      ],
      "stateMutability": "view",
      "type": "function"
    },
    {
      "inputs": [],
      "name": "currentId",
      "outputs": [
        {
          "internalType": "uint256",
          "name": "",
          "type": "uint256"
        }
      ],
      "stateMutability": "view",
      "type": "function"
    },
    {
      "inputs": [
        {
          "internalType": "uint256",
          "name": "",
          "type": "uint256"
        },
        {
          "internalType": "uint256",
          "name": "",
          "type": "uint256"
        }
      ],
      "name": "currentURI",
      "outputs": [
        {
          "internalType": "string",
          "name": "",
          "type": "string"
        }
      ],
      "stateMutability": "view",
      "type": "function"
    },
    {
      "inputs": [
        {
          "internalType": "uint256",
          "name": "tokenId",
          "type": "uint256"
        }
      ],
      "name": "getApproved",
      "outputs": [
        {
          "internalType": "address",
          "name": "",
          "type": "address"
        }
      ],
      "stateMutability": "view",
      "type": "function"
    },
    {
      "inputs": [
        {
          "internalType": "address",
          "name": "owner",
          "type": "address"
        },
        {
          "internalType": "address",
          "name": "operator",
          "type": "address"
        }
      ],
      "name": "isApprovedForAll",
      "outputs": [
        {
          "internalType": "bool",
          "name": "",
          "type": "bool"
        }
      ],
      "stateMutability": "view",
      "type": "function"
    },
    {
      "inputs": [
        {
          "internalType": "string[]",
          "name": "tokenURIs",
          "type": "string[]"
        }
      ],
      "name": "mint",
      "outputs": [
        {
          "internalType": "uint256",
          "name": "",
          "type": "uint256"
        }
      ],
      "stateMutability": "nonpayable",
      "type": "function"
    },
    {
      "inputs": [],
      "name": "name",
      "outputs": [
        {
          "internalType": "string",
          "name": "",
          "type": "string"
        }
      ],
      "stateMutability": "view",
      "type": "function"
    },
    {
      "inputs": [
        {
          "internalType": "uint256",
          "name": "tokenId",
          "type": "uint256"
        }
      ],
      "name": "ownerOf",
      "outputs": [
        {
          "internalType": "address",
          "name": "",
          "type": "address"
        }
      ],
      "stateMutability": "view",
      "type": "function"
    },
    {
      "inputs": [
        {
          "internalType": "address",
          "name": "from",
          "type": "address"
        },
        {
          "internalType": "address",
          "name": "to",
          "type": "address"
        },
        {
          "internalType": "uint256",
          "name": "tokenId",
          "type": "uint256"
        }
      ],
      "name": "safeTransferFrom",
      "outputs": [],
      "stateMutability": "nonpayable",
      "type": "function"
    },
    {
      "inputs": [
        {
          "internalType": "address",
          "name": "from",
          "type": "address"
        },
        {
          "internalType": "address",
          "name": "to",
          "type": "address"
        },
        {
          "internalType": "uint256",
          "name": "tokenId",
          "type": "uint256"
        },
        {
          "internalType": "bytes",
          "name": "data",
          "type": "bytes"
        }
      ],
      "name": "safeTransferFrom",
      "outputs": [],
      "stateMutability": "nonpayable",
      "type": "function"
    },
    {
      "inputs": [
        {
          "internalType": "address",
          "name": "operator",
          "type": "address"
        },
        {
          "internalType": "bool",
          "name": "approved",
          "type": "bool"
        }
      ],
      "name": "setApprovalForAll",
      "outputs": [],
      "stateMutability": "nonpayable",
      "type": "function"
    },
    {
      "inputs": [
        {
          "internalType": "bytes4",
          "name": "interfaceId",
          "type": "bytes4"
        }
      ],
      "name": "supportsInterface",
      "outputs": [
        {
          "internalType": "bool",
          "name": "",
          "type": "bool"
        }
      ],
      "stateMutability": "view",
      "type": "function"
    },
    {
      "inputs": [],
      "name": "symbol",
      "outputs": [
        {
          "internalType": "string",
          "name": "",
          "type": "string"
        }
      ],
      "stateMutability": "view",
      "type": "function"
    },
    {
      "inputs": [
        {
          "internalType": "uint256",
          "name": "tokenId",
          "type": "uint256"
        }
      ],
      "name": "tokenURI",
      "outputs": [
        {
          "internalType": "string",
          "name": "",
          "type": "string"
        }
      ],
      "stateMutability": "view",
      "type": "function"
    },
    {
      "inputs": [
        {
          "internalType": "address",
          "name": "from",
          "type": "address"
        },
        {
          "internalType": "address",
          "name": "to",
          "type": "address"
        },
        {
          "internalType": "uint256",
          "name": "tokenId",
          "type": "uint256"
        }
      ],
      "name": "transferFrom",
      "outputs": [],
      "stateMutability": "nonpayable",
      "type": "function"
    }
  ],
  "bytecode": {
    "object": "0x60806040523480156200001157600080fd5b5060408051808201825260048152630747278760e41b60208083019182528351808501909452600984526854525820505249434560b81b9084015281519192916200005f916000916200007e565b508051620000759060019060208401906200007e565b50505062000160565b8280546200008c9062000124565b90600052602060002090601f016020900481019282620000b05760008555620000fb565b82601f10620000cb57805160ff1916838001178555620000fb565b82800160010185558215620000fb579182015b82811115620000fb578251825591602001919060010190620000de565b50620001099291506200010d565b5090565b5b808211156200010957600081556001016200010e565b600181811c908216806200013957607f821691505b6020821081036200015a57634e487b7160e01b600052602260045260246000fd5b50919050565b6116ef80620001706000396000f3fe608060405234801561001057600080fd5b50600436106101005760003560e01c806370a0823111610097578063b88d4fde11610066578063b88d4fde1461021d578063c87b56dd14610230578063e00dd16114610243578063e985e9c51461024c57600080fd5b806370a08231146101dc57806395d89b41146101ef578063a22cb465146101f7578063b0da7ba51461020a57600080fd5b806323b872dd116100d357806323b872dd1461018257806342842e0e146101955780635768f271146101a85780636352211e146101c957600080fd5b806301ffc9a71461010557806306fdde031461012d578063081812fc14610142578063095ea7b31461016d575b600080fd5b6101186101133660046110e2565b610288565b60405190151581526020015b60405180910390f35b6101356102da565b6040516101249190611157565b61015561015036600461116a565b61036c565b6040516001600160a01b039091168152602001610124565b61018061017b36600461119f565b610393565b005b6101806101903660046111c9565b6104ad565b6101806101a33660046111c9565b6104de565b6101bb6101b63660046112a4565b6104f9565b604051908152602001610124565b6101556101d736600461116a565b61052d565b6101bb6101ea36600461137c565b61058d565b610135610613565b610180610205366004611397565b610622565b6101356102183660046113d3565b610631565b61018061022b3660046113f5565b6106d6565b61013561023e36600461116a565b61070e565b6101bb60075481565b61011861025a366004611471565b6001600160a01b03918216600090815260056020908152604080832093909416825291909152205460ff1690565b60006001600160e01b031982166380ac58cd60e01b14806102b957506001600160e01b03198216635b5e139f60e01b145b806102d457506301ffc9a760e01b6001600160e01b03198316145b92915050565b6060600080546102e9906114a4565b80601f0160208091040260200160405190810160405280929190818152602001828054610315906114a4565b80156103625780601f1061033757610100808354040283529160200191610362565b820191906000526020600020905b81548152906001019060200180831161034557829003601f168201915b5050505050905090565b60006103778261081e565b506000908152600460205260409020546001600160a01b031690565b600061039e8261052d565b9050806001600160a01b0316836001600160a01b0316036104105760405162461bcd60e51b815260206004820152602160248201527f4552433732313a20617070726f76616c20746f2063757272656e74206f776e656044820152603960f91b60648201526084015b60405180910390fd5b336001600160a01b038216148061042c575061042c813361025a565b61049e5760405162461bcd60e51b815260206004820152603e60248201527f4552433732313a20617070726f76652063616c6c6572206973206e6f7420746f60448201527f6b656e206f776e6572206e6f7220617070726f76656420666f7220616c6c00006064820152608401610407565b6104a88383610880565b505050565b6104b733826108ee565b6104d35760405162461bcd60e51b8152600401610407906114de565b6104a883838361096c565b6104a8838383604051806020016040528060008152506106d6565b600061050733600754610b17565b61051360075483610c59565b6007805490600061052383611542565b9091555092915050565b6000818152600260205260408120546001600160a01b0316806102d45760405162461bcd60e51b8152602060048201526018602482015277115490cdcc8c4e881a5b9d985b1a59081d1bdad95b88125160421b6044820152606401610407565b60006001600160a01b0382166105f75760405162461bcd60e51b815260206004820152602960248201527f4552433732313a2061646472657373207a65726f206973206e6f7420612076616044820152683634b21037bbb732b960b91b6064820152608401610407565b506001600160a01b031660009081526003602052604090205490565b6060600180546102e9906114a4565b61062d338383610cbc565b5050565b600860209081526000928352604080842090915290825290208054610655906114a4565b80601f0160208091040260200160405190810160405280929190818152602001828054610681906114a4565b80156106ce5780601f106106a3576101008083540402835291602001916106ce565b820191906000526020600020905b8154815290600101906020018083116106b157829003601f168201915b505050505081565b6106e033836108ee565b6106fc5760405162461bcd60e51b8152600401610407906114de565b61070884848484610d8a565b50505050565b60606107198261081e565b60008281526006602052604081208054610732906114a4565b80601f016020809104026020016040519081016040528092919081815260200182805461075e906114a4565b80156107ab5780601f10610780576101008083540402835291602001916107ab565b820191906000526020600020905b81548152906001019060200180831161078e57829003601f168201915b5050505050905060006107c960408051602081019091526000815290565b905080516000036107db575092915050565b81511561080d5780826040516020016107f592919061155b565b60405160208183030381529060405292505050919050565b61081684610dbd565b949350505050565b6000818152600260205260409020546001600160a01b031661087d5760405162461bcd60e51b8152602060048201526018602482015277115490cdcc8c4e881a5b9d985b1a59081d1bdad95b88125160421b6044820152606401610407565b50565b600081815260046020526040902080546001600160a01b0319166001600160a01b03841690811790915581906108b58261052d565b6001600160a01b03167f8c5be1e5ebec7d5bd14f71427d1e84f3dd0314c0f7b2291e5b200ac8c7c3b92560405160405180910390a45050565b6000806108fa8361052d565b9050806001600160a01b0316846001600160a01b0316148061094157506001600160a01b0380821660009081526005602090815260408083209388168352929052205460ff165b806108165750836001600160a01b031661095a8461036c565b6001600160a01b031614949350505050565b826001600160a01b031661097f8261052d565b6001600160a01b0316146109e35760405162461bcd60e51b815260206004820152602560248201527f4552433732313a207472616e736665722066726f6d20696e636f72726563742060448201526437bbb732b960d91b6064820152608401610407565b6001600160a01b038216610a455760405162461bcd60e51b8152602060048201526024808201527f4552433732313a207472616e7366657220746f20746865207a65726f206164646044820152637265737360e01b6064820152608401610407565b600081815260046020908152604080832080546001600160a01b03191690556001600160a01b038616835260039091528120805460019290610a8890849061158a565b90915550506001600160a01b0382166000908152600360205260408120805460019290610ab69084906115a1565b909155505060008181526002602052604080822080546001600160a01b0319166001600160a01b0386811691821790925591518493918716917fddf252ad1be2c89b69c2b068fc378daa952ba7f163c4a11628f55a4df523b3ef91a4505050565b6001600160a01b038216610b6d5760405162461bcd60e51b815260206004820181905260248201527f4552433732313a206d696e7420746f20746865207a65726f20616464726573736044820152606401610407565b6000818152600260205260409020546001600160a01b031615610bd25760405162461bcd60e51b815260206004820152601c60248201527f4552433732313a20746f6b656e20616c7265616479206d696e746564000000006044820152606401610407565b6001600160a01b0382166000908152600360205260408120805460019290610bfb9084906115a1565b909155505060008181526002602052604080822080546001600160a01b0319166001600160a01b03861690811790915590518392907fddf252ad1be2c89b69c2b068fc378daa952ba7f163c4a11628f55a4df523b3ef908290a45050565b60005b60188110156104a857818181518110610c7757610c776115b9565b6020908102919091018101516000858152600883526040808220858352845290208151610ca993919290910190611033565b5080610cb481611542565b915050610c5c565b816001600160a01b0316836001600160a01b031603610d1d5760405162461bcd60e51b815260206004820152601960248201527f4552433732313a20617070726f766520746f2063616c6c6572000000000000006044820152606401610407565b6001600160a01b03838116600081815260056020908152604080832094871680845294825291829020805460ff191686151590811790915591519182527f17307eab39ab6107e8899845ad3d59bd9653f200f220920489ca2b5937696c31910160405180910390a3505050565b610d9584848461096c565b610da184848484610e31565b6107085760405162461bcd60e51b8152600401610407906115cf565b6060610dc88261081e565b6000610ddf60408051602081019091526000815290565b90506000815111610dff5760405180602001604052806000815250610e2a565b80610e0984610f32565b604051602001610e1a92919061155b565b6040516020818303038152906040525b9392505050565b60006001600160a01b0384163b15610f2757604051630a85bd0160e11b81526001600160a01b0385169063150b7a0290610e75903390899088908890600401611621565b6020604051808303816000875af1925050508015610eb0575060408051601f3d908101601f19168201909252610ead9181019061165e565b60015b610f0d573d808015610ede576040519150601f19603f3d011682016040523d82523d6000602084013e610ee3565b606091505b508051600003610f055760405162461bcd60e51b8152600401610407906115cf565b805181602001fd5b6001600160e01b031916630a85bd0160e11b149050610816565b506001949350505050565b606081600003610f595750506040805180820190915260018152600360fc1b602082015290565b8160005b8115610f835780610f6d81611542565b9150610f7c9050600a83611691565b9150610f5d565b60008167ffffffffffffffff811115610f9e57610f9e611205565b6040519080825280601f01601f191660200182016040528015610fc8576020820181803683370190505b5090505b841561081657610fdd60018361158a565b9150610fea600a866116a5565b610ff59060306115a1565b60f81b81838151811061100a5761100a6115b9565b60200101906001600160f81b031916908160001a90535061102c600a86611691565b9450610fcc565b82805461103f906114a4565b90600052602060002090601f01602090048101928261106157600085556110a7565b82601f1061107a57805160ff19168380011785556110a7565b828001600101855582156110a7579182015b828111156110a757825182559160200191906001019061108c565b506110b39291506110b7565b5090565b5b808211156110b357600081556001016110b8565b6001600160e01b03198116811461087d57600080fd5b6000602082840312156110f457600080fd5b8135610e2a816110cc565b60005b8381101561111a578181015183820152602001611102565b838111156107085750506000910152565b600081518084526111438160208601602086016110ff565b601f01601f19169290920160200192915050565b602081526000610e2a602083018461112b565b60006020828403121561117c57600080fd5b5035919050565b80356001600160a01b038116811461119a57600080fd5b919050565b600080604083850312156111b257600080fd5b6111bb83611183565b946020939093013593505050565b6000806000606084860312156111de57600080fd5b6111e784611183565b92506111f560208501611183565b9150604084013590509250925092565b634e487b7160e01b600052604160045260246000fd5b604051601f8201601f1916810167ffffffffffffffff8111828210171561124457611244611205565b604052919050565b600067ffffffffffffffff83111561126657611266611205565b611279601f8401601f191660200161121b565b905082815283838301111561128d57600080fd5b828260208301376000602084830101529392505050565b600060208083850312156112b757600080fd5b823567ffffffffffffffff808211156112cf57600080fd5b818501915085601f8301126112e357600080fd5b8135818111156112f5576112f5611205565b8060051b61130485820161121b565b918252838101850191858101908984111561131e57600080fd5b86860192505b8383101561136f5782358581111561133c5760008081fd5b8601603f81018b1361134e5760008081fd5b61135f8b898301356040840161124c565b8352509186019190860190611324565b9998505050505050505050565b60006020828403121561138e57600080fd5b610e2a82611183565b600080604083850312156113aa57600080fd5b6113b383611183565b9150602083013580151581146113c857600080fd5b809150509250929050565b600080604083850312156113e657600080fd5b50508035926020909101359150565b6000806000806080858703121561140b57600080fd5b61141485611183565b935061142260208601611183565b925060408501359150606085013567ffffffffffffffff81111561144557600080fd5b8501601f8101871361145657600080fd5b6114658782356020840161124c565b91505092959194509250565b6000806040838503121561148457600080fd5b61148d83611183565b915061149b60208401611183565b90509250929050565b600181811c908216806114b857607f821691505b6020821081036114d857634e487b7160e01b600052602260045260246000fd5b50919050565b6020808252602e908201527f4552433732313a2063616c6c6572206973206e6f7420746f6b656e206f776e6560408201526d1c881b9bdc88185c1c1c9bdd995960921b606082015260800190565b634e487b7160e01b600052601160045260246000fd5b6000600182016115545761155461152c565b5060010190565b6000835161156d8184602088016110ff565b8351908301906115818183602088016110ff565b01949350505050565b60008282101561159c5761159c61152c565b500390565b600082198211156115b4576115b461152c565b500190565b634e487b7160e01b600052603260045260246000fd5b60208082526032908201527f4552433732313a207472616e7366657220746f206e6f6e20455243373231526560408201527131b2b4bb32b91034b6b83632b6b2b73a32b960711b606082015260800190565b6001600160a01b03858116825284166020820152604081018390526080606082018190526000906116549083018461112b565b9695505050505050565b60006020828403121561167057600080fd5b8151610e2a816110cc565b634e487b7160e01b600052601260045260246000fd5b6000826116a0576116a061167b565b500490565b6000826116b4576116b461167b565b50069056fea2646970667358221220ffafd8d66893e3225d838aedb4ae687fb889985f7e15569859663c1c07a2a8ab64736f6c634300080d0033",
    "linkReferences": {}
  }
}