{
  "abi": [
    {
      "inputs": [
        {
          "internalType": "address",
          "name": "_defaultPriceFeed",
          "type": "address"
        },
        {
          "internalType": "uint256",
          "name": "_URIsPerToken",
          "type": "uint256"
        }
      ],
      "stateMutability": "nonpayable",
      "type": "constructor"
    },
    {
      "anonymous": false,
      "inputs": [
        {
          "indexed": true,
          "internalType": "address",
          "name": "owner",
          "type": "address"
        },
        {
          "indexed": true,
          "internalType": "address",
          "name": "approved",
          "type": "address"
        },
        {
          "indexed": true,
          "internalType": "uint256",
          "name": "tokenId",
          "type": "uint256"
        }
      ],
      "name": "Approval",
      "type": "event"
    },
    {
      "anonymous": false,
      "inputs": [
        {
          "indexed": true,
          "internalType": "address",
          "name": "owner",
          "type": "address"
        },
        {
          "indexed": true,
          "internalType": "address",
          "name": "operator",
          "type": "address"
        },
        {
          "indexed": false,
          "internalType": "bool",
          "name": "approved",
          "type": "bool"
        }
      ],
      "name": "ApprovalForAll",
      "type": "event"
    },
    {
      "anonymous": false,
      "inputs": [
        {
          "indexed": true,
          "internalType": "address",
          "name": "from",
          "type": "address"
        },
        {
          "indexed": true,
          "internalType": "address",
          "name": "to",
          "type": "address"
        },
        {
          "indexed": true,
          "internalType": "uint256",
          "name": "tokenId",
          "type": "uint256"
        }
      ],
      "name": "Transfer",
      "type": "event"
    },
    {
      "inputs": [],
      "name": "URIsPerToken",
      "outputs": [
        {
          "internalType": "uint256",
          "name": "",
          "type": "uint256"
        }
      ],
      "stateMutability": "view",
      "type": "function"
    },
    {
      "inputs": [
        {
          "internalType": "address",
          "name": "to",
          "type": "address"
        },
        {
          "internalType": "uint256",
          "name": "tokenId",
          "type": "uint256"
        }
      ],
      "name": "approve",
      "outputs": [],
      "stateMutability": "nonpayable",
      "type": "function"
    },
    {
      "inputs": [
        {
          "internalType": "address",
          "name": "owner",
          "type": "address"
        }
      ],
      "name": "balanceOf",
      "outputs": [
        {
          "internalType": "uint256",
          "name": "",
          "type": "uint256"
        }
      ],
      "stateMutability": "view",
      "type": "function"
    },
    {
      "inputs": [],
      "name": "currentId",
      "outputs": [
        {
          "internalType": "uint256",
          "name": "",
          "type": "uint256"
        }
      ],
      "stateMutability": "view",
      "type": "function"
    },
    {
      "inputs": [
        {
          "internalType": "uint256",
          "name": "",
          "type": "uint256"
        },
        {
          "internalType": "uint256",
          "name": "",
          "type": "uint256"
        }
      ],
      "name": "currentURI",
      "outputs": [
        {
          "internalType": "string",
          "name": "",
          "type": "string"
        }
      ],
      "stateMutability": "view",
      "type": "function"
    },
    {
      "inputs": [],
      "name": "defaultPriceFeed",
      "outputs": [
        {
          "internalType": "address",
          "name": "",
          "type": "address"
        }
      ],
      "stateMutability": "view",
      "type": "function"
    },
    {
      "inputs": [],
      "name": "getAllTokenURIs",
      "outputs": [
        {
          "internalType": "string[]",
          "name": "",
          "type": "string[]"
        }
      ],
      "stateMutability": "view",
      "type": "function"
    },
    {
      "inputs": [
        {
          "internalType": "uint256",
          "name": "tokenId",
          "type": "uint256"
        }
      ],
      "name": "getApproved",
      "outputs": [
        {
          "internalType": "address",
          "name": "",
          "type": "address"
        }
      ],
      "stateMutability": "view",
      "type": "function"
    },
    {
      "inputs": [],
      "name": "getCurrentURIs",
      "outputs": [
        {
          "internalType": "string[]",
          "name": "",
          "type": "string[]"
        }
      ],
      "stateMutability": "view",
      "type": "function"
    },
    {
      "inputs": [
        {
          "internalType": "uint256",
          "name": "tokenId",
          "type": "uint256"
        }
      ],
      "name": "getPriceInfo",
      "outputs": [
        {
          "internalType": "int256",
          "name": "",
          "type": "int256"
        },
        {
          "internalType": "int256",
          "name": "",
          "type": "int256"
        },
        {
          "internalType": "int256",
          "name": "",
          "type": "int256"
        }
      ],
      "stateMutability": "view",
      "type": "function"
    },
    {
      "inputs": [
        {
          "internalType": "uint256",
          "name": "tokenId",
          "type": "uint256"
        }
      ],
      "name": "getTokenURI",
      "outputs": [
        {
          "internalType": "string",
          "name": "",
          "type": "string"
        }
      ],
      "stateMutability": "view",
      "type": "function"
    },
    {
      "inputs": [
        {
          "internalType": "uint256",
          "name": "tokenId",
          "type": "uint256"
        }
      ],
      "name": "getTokenURIs",
      "outputs": [
        {
          "internalType": "string[]",
          "name": "",
          "type": "string[]"
        }
      ],
      "stateMutability": "view",
      "type": "function"
    },
    {
      "inputs": [
        {
          "internalType": "address",
          "name": "owner",
          "type": "address"
        },
        {
          "internalType": "address",
          "name": "operator",
          "type": "address"
        }
      ],
      "name": "isApprovedForAll",
      "outputs": [
        {
          "internalType": "bool",
          "name": "",
          "type": "bool"
        }
      ],
      "stateMutability": "view",
      "type": "function"
    },
    {
      "inputs": [
        {
          "internalType": "string[]",
          "name": "tokenURIs",
          "type": "string[]"
        }
      ],
      "name": "mint",
      "outputs": [
        {
          "internalType": "uint256",
          "name": "",
          "type": "uint256"
        }
      ],
      "stateMutability": "nonpayable",
      "type": "function"
    },
    {
      "inputs": [
        {
          "internalType": "string[]",
          "name": "tokenURIs",
          "type": "string[]"
        },
        {
          "internalType": "address",
          "name": "priceFeed",
          "type": "address"
        }
      ],
      "name": "mint",
      "outputs": [
        {
          "internalType": "uint256",
          "name": "",
          "type": "uint256"
        }
      ],
      "stateMutability": "nonpayable",
      "type": "function"
    },
    {
      "inputs": [],
      "name": "name",
      "outputs": [
        {
          "internalType": "string",
          "name": "",
          "type": "string"
        }
      ],
      "stateMutability": "view",
      "type": "function"
    },
    {
      "inputs": [
        {
          "internalType": "uint256",
          "name": "tokenId",
          "type": "uint256"
        }
      ],
      "name": "ownerOf",
      "outputs": [
        {
          "internalType": "address",
          "name": "",
          "type": "address"
        }
      ],
      "stateMutability": "view",
      "type": "function"
    },
    {
      "inputs": [
        {
          "internalType": "uint256",
          "name": "",
          "type": "uint256"
        }
      ],
      "name": "priceFeedById",
      "outputs": [
        {
          "internalType": "address",
          "name": "",
          "type": "address"
        }
      ],
      "stateMutability": "view",
      "type": "function"
    },
    {
      "inputs": [
        {
          "internalType": "address",
          "name": "from",
          "type": "address"
        },
        {
          "internalType": "address",
          "name": "to",
          "type": "address"
        },
        {
          "internalType": "uint256",
          "name": "tokenId",
          "type": "uint256"
        }
      ],
      "name": "safeTransferFrom",
      "outputs": [],
      "stateMutability": "nonpayable",
      "type": "function"
    },
    {
      "inputs": [
        {
          "internalType": "address",
          "name": "from",
          "type": "address"
        },
        {
          "internalType": "address",
          "name": "to",
          "type": "address"
        },
        {
          "internalType": "uint256",
          "name": "tokenId",
          "type": "uint256"
        },
        {
          "internalType": "bytes",
          "name": "data",
          "type": "bytes"
        }
      ],
      "name": "safeTransferFrom",
      "outputs": [],
      "stateMutability": "nonpayable",
      "type": "function"
    },
    {
      "inputs": [
        {
          "internalType": "address",
          "name": "operator",
          "type": "address"
        },
        {
          "internalType": "bool",
          "name": "approved",
          "type": "bool"
        }
      ],
      "name": "setApprovalForAll",
      "outputs": [],
      "stateMutability": "nonpayable",
      "type": "function"
    },
    {
      "inputs": [],
      "name": "size",
      "outputs": [
        {
          "internalType": "string[]",
          "name": "",
          "type": "string[]"
        }
      ],
      "stateMutability": "view",
      "type": "function"
    },
    {
      "inputs": [
        {
          "internalType": "bytes4",
          "name": "interfaceId",
          "type": "bytes4"
        }
      ],
      "name": "supportsInterface",
      "outputs": [
        {
          "internalType": "bool",
          "name": "",
          "type": "bool"
        }
      ],
      "stateMutability": "view",
      "type": "function"
    },
    {
      "inputs": [],
      "name": "symbol",
      "outputs": [
        {
          "internalType": "string",
          "name": "",
          "type": "string"
        }
      ],
      "stateMutability": "view",
      "type": "function"
    },
    {
      "inputs": [
        {
          "internalType": "uint256",
          "name": "tokenId",
          "type": "uint256"
        }
      ],
      "name": "tokenURI",
      "outputs": [
        {
          "internalType": "string",
          "name": "",
          "type": "string"
        }
      ],
      "stateMutability": "view",
      "type": "function"
    },
    {
      "inputs": [
        {
          "internalType": "address",
          "name": "from",
          "type": "address"
        },
        {
          "internalType": "address",
          "name": "to",
          "type": "address"
        },
        {
          "internalType": "uint256",
          "name": "tokenId",
          "type": "uint256"
        }
      ],
      "name": "transferFrom",
      "outputs": [],
      "stateMutability": "nonpayable",
      "type": "function"
    }
  ],
  "bytecode": {
    "object": "0x60806040523480156200001157600080fd5b50604051620022823803806200228283398101604081905262000034916200016e565b60408051808201825260048152630776a62760e41b60208083019182528351808501909452600c84526b576f6a616b4279507269636560a01b908401528151849391620000859160009190620000c8565b5080516200009b906001906020840190620000c8565b50505060085550600b80546001600160a01b0319166001600160a01b0392909216919091179055620001e6565b828054620000d690620001aa565b90600052602060002090601f016020900481019282620000fa576000855562000145565b82601f106200011557805160ff191683800117855562000145565b8280016001018555821562000145579182015b828111156200014557825182559160200191906001019062000128565b506200015392915062000157565b5090565b5b8082111562000153576000815560010162000158565b600080604083850312156200018257600080fd5b82516001600160a01b03811681146200019a57600080fd5b6020939093015192949293505050565b600181811c90821680620001bf57607f821691505b602082108103620001e057634e487b7160e01b600052602260045260246000fd5b50919050565b61208c80620001f66000396000f3fe608060405234801561001057600080fd5b506004361061018e5760003560e01c8063774159c6116100de578063b22c421f11610097578063c87b56dd11610071578063c87b56dd14610386578063d8e1b3aa14610399578063e00dd161146103a2578063e985e9c5146103ab57600080fd5b8063b22c421f1461034d578063b88d4fde14610360578063c1636bc91461037357600080fd5b8063774159c6146102e157806389fde7af1461030f578063949d225d1461031757806395d89b411461031f578063a22cb46514610327578063b0da7ba51461033a57600080fd5b80633bb3a24d1161014b5780635768f271116101255780635768f271146102875780636352211e146102a857806364224120146102bb57806370a08231146102ce57600080fd5b80633bb3a24d1461023857806342842e0e1461024b578063558143fe1461025e57600080fd5b806301ffc9a71461019357806306fdde03146101bb578063081812fc146101d0578063095ea7b3146101fb5780632370748c1461021057806323b872dd14610225575b600080fd5b6101a66101a136600461192e565b6103e7565b60405190151581526020015b60405180910390f35b6101c3610439565b6040516101b2919061199f565b6101e36101de3660046119b2565b6104cb565b6040516001600160a01b0390911681526020016101b2565b61020e6102093660046119e7565b6104f2565b005b61021861060c565b6040516101b29190611a11565b61020e610233366004611a73565b6106ad565b6101c36102463660046119b2565b6106de565b61020e610259366004611a73565b610a18565b6101e361026c3660046119b2565b600a602052600090815260409020546001600160a01b031681565b61029a610295366004611c02565b610a33565b6040519081526020016101b2565b6101e36102b63660046119b2565b610a4d565b6102186102c93660046119b2565b610aad565b61029a6102dc366004611c37565b610be8565b6102f46102ef3660046119b2565b610c6e565b604080519384526020840192909252908201526060016101b2565b610218610ebb565b610218610fbb565b6101c3611020565b61020e610335366004611c52565b61102f565b6101c3610348366004611c8e565b61103e565b61029a61035b366004611cb0565b6110e3565b61020e61036e366004611cfe565b611192565b600b546101e3906001600160a01b031681565b6101c36103943660046119b2565b6111ca565b61029a60085481565b61029a60075481565b6101a66103b9366004611d7a565b6001600160a01b03918216600090815260056020908152604080832093909416825291909152205460ff1690565b60006001600160e01b031982166380ac58cd60e01b148061041857506001600160e01b03198216635b5e139f60e01b145b8061043357506301ffc9a760e01b6001600160e01b03198316145b92915050565b60606000805461044890611da4565b80601f016020809104026020016040519081016040528092919081815260200182805461047490611da4565b80156104c15780601f10610496576101008083540402835291602001916104c1565b820191906000526020600020905b8154815290600101906020018083116104a457829003601f168201915b5050505050905090565b60006104d6826111de565b506000908152600460205260409020546001600160a01b031690565b60006104fd82610a4d565b9050806001600160a01b0316836001600160a01b03160361056f5760405162461bcd60e51b815260206004820152602160248201527f4552433732313a20617070726f76616c20746f2063757272656e74206f776e656044820152603960f91b60648201526084015b60405180910390fd5b336001600160a01b038216148061058b575061058b81336103b9565b6105fd5760405162461bcd60e51b815260206004820152603e60248201527f4552433732313a20617070726f76652063616c6c6572206973206e6f7420746f60448201527f6b656e206f776e6572206e6f7220617070726f76656420666f7220616c6c00006064820152608401610566565b6106078383611240565b505050565b6060600060075467ffffffffffffffff81111561062b5761062b611aaf565b60405190808252806020026020018201604052801561065e57816020015b60608152602001906001900390816106495790505b50905060005b6007548110156106a757610677816106de565b82828151811061068957610689611dd8565b6020026020010181905250808061069f90611e04565b915050610664565b50919050565b6106b733826112ae565b6106d35760405162461bcd60e51b815260040161056690611e1d565b61060783838361132d565b606060006106ef6201518042611e6b565b6000848152600a602090815260408083205481516350d25bcd60e01b8152915194955092936001600160a01b03909316926350d25bcd926004808401939192918290030181865afa158015610748573d6000803e3d6000fd5b505050506040513d601f19601f8201168201806040525081019061076c9190611e82565b6000858152600a60209081526040808320548151633345078160e11b8152915194955092936001600160a01b039093169263668a0f02926004808401939192918290030181865afa1580156107c5573d6000803e3d6000fd5b505050506040513d601f19601f820116820180604052508101906107e99190611e82565b90506000195b83811115610884578161080181611e9b565b6000888152600a602052604090819020549051632d8cd88360e21b8152600481018390529194506001600160a01b0316915063b633620c90602401602060405180830381865afa158015610859573d6000803e3d6000fd5b505050506040513d601f19601f8201168201806040525081019061087d9190611e82565b90506107ef565b6000868152600a6020526040808220549051632d6ad63760e21b8152600481018590526001600160a01b039091169063b5ab58dc90602401602060405180830381865afa1580156108d9573d6000803e3d6000fd5b505050506040513d601f19601f820116820180604052508101906108fd9190611e82565b905060008161090e866103e8611eb2565b6109189190611f37565b9050600061040182131561092e57506004610968565b6103f282131561094057506003610968565b6103de82131561095257506002610968565b6103cf82131561096457506001610968565b5060005b60008981526009602090815260408083208484529091529020805461098c90611da4565b80601f01602080910402602001604051908101604052809291908181526020018280546109b890611da4565b8015610a055780601f106109da57610100808354040283529160200191610a05565b820191906000526020600020905b8154815290600101906020018083116109e857829003601f168201915b5050505050975050505050505050919050565b61060783838360405180602001604052806000815250611192565b600b546000906104339083906001600160a01b03166110e3565b6000818152600260205260408120546001600160a01b0316806104335760405162461bcd60e51b8152602060048201526018602482015277115490cdcc8c4e881a5b9d985b1a59081d1bdad95b88125160421b6044820152606401610566565b6060600060085467ffffffffffffffff811115610acc57610acc611aaf565b604051908082528060200260200182016040528015610aff57816020015b6060815260200190600190039081610aea5790505b50905060005b600854811015610be157600084815260096020908152604080832084845290915290208054610b3390611da4565b80601f0160208091040260200160405190810160405280929190818152602001828054610b5f90611da4565b8015610bac5780601f10610b8157610100808354040283529160200191610bac565b820191906000526020600020905b815481529060010190602001808311610b8f57829003601f168201915b5050505050828281518110610bc357610bc3611dd8565b60200260200101819052508080610bd990611e04565b915050610b05565b5092915050565b60006001600160a01b038216610c525760405162461bcd60e51b815260206004820152602960248201527f4552433732313a2061646472657373207a65726f206973206e6f7420612076616044820152683634b21037bbb732b960b91b6064820152608401610566565b506001600160a01b031660009081526003602052604090205490565b6000808080610c806201518042611e6b565b6000868152600a602090815260408083205481516350d25bcd60e01b8152915194955092936001600160a01b03909316926350d25bcd926004808401939192918290030181865afa158015610cd9573d6000803e3d6000fd5b505050506040513d601f19601f82011682018060405250810190610cfd9190611e82565b6000878152600a60209081526040808320548151633345078160e11b8152915194955092936001600160a01b039093169263668a0f02926004808401939192918290030181865afa158015610d56573d6000803e3d6000fd5b505050506040513d601f19601f82011682018060405250810190610d7a9190611e82565b90506000195b83811115610e155781610d9281611e9b565b60008a8152600a602052604090819020549051632d8cd88360e21b8152600481018390529194506001600160a01b0316915063b633620c90602401602060405180830381865afa158015610dea573d6000803e3d6000fd5b505050506040513d601f19601f82011682018060405250810190610e0e9190611e82565b9050610d80565b6000888152600a6020526040808220549051632d6ad63760e21b8152600481018590526001600160a01b039091169063b5ab58dc90602401602060405180830381865afa158015610e6a573d6000803e3d6000fd5b505050506040513d601f19601f82011682018060405250810190610e8e9190611e82565b9050600081610e9f866103e8611eb2565b610ea99190611f37565b919a9499509097509295505050505050565b60606000600854600754610ecf9190611f73565b67ffffffffffffffff811115610ee757610ee7611aaf565b604051908082528060200260200182016040528015610f1a57816020015b6060815260200190600190039081610f055790505b50905060005b6007548110156106a7576000610f3582610aad565b905060005b600854811015610fa657818181518110610f5657610f56611dd8565b6020026020010151848260085486610f6e9190611f73565b610f789190611f92565b81518110610f8857610f88611dd8565b60200260200101819052508080610f9e90611e04565b915050610f3a565b50508080610fb390611e04565b915050610f20565b60606000600854600754610fcf9190611f73565b67ffffffffffffffff811115610fe757610fe7611aaf565b604051908082528060200260200182016040528015610be157816020015b60608152602001906001900390816110055790505092915050565b60606001805461044890611da4565b61103a3383836114d8565b5050565b60096020908152600092835260408084209091529082529020805461106290611da4565b80601f016020809104026020016040519081016040528092919081815260200182805461108e90611da4565b80156110db5780601f106110b0576101008083540402835291602001916110db565b820191906000526020600020905b8154815290600101906020018083116110be57829003601f168201915b505050505081565b60006008548351146111375760405162461bcd60e51b815260206004820152601860248201527f746f6f206d616e79206f7220746f6f20666577205552497300000000000000006044820152606401610566565b611143336007546115a6565b61114f600754846116e8565b600780546000908152600a6020526040812080546001600160a01b0319166001600160a01b0386161790558154919061118783611e04565b909155509392505050565b61119c33836112ae565b6111b85760405162461bcd60e51b815260040161056690611e1d565b6111c48484848461174b565b50505050565b60606111d5826111de565b610433826106de565b6000818152600260205260409020546001600160a01b031661123d5760405162461bcd60e51b8152602060048201526018602482015277115490cdcc8c4e881a5b9d985b1a59081d1bdad95b88125160421b6044820152606401610566565b50565b600081815260046020526040902080546001600160a01b0319166001600160a01b038416908117909155819061127582610a4d565b6001600160a01b03167f8c5be1e5ebec7d5bd14f71427d1e84f3dd0314c0f7b2291e5b200ac8c7c3b92560405160405180910390a45050565b6000806112ba83610a4d565b9050806001600160a01b0316846001600160a01b0316148061130157506001600160a01b0380821660009081526005602090815260408083209388168352929052205460ff165b806113255750836001600160a01b031661131a846104cb565b6001600160a01b0316145b949350505050565b826001600160a01b031661134082610a4d565b6001600160a01b0316146113a45760405162461bcd60e51b815260206004820152602560248201527f4552433732313a207472616e736665722066726f6d20696e636f72726563742060448201526437bbb732b960d91b6064820152608401610566565b6001600160a01b0382166114065760405162461bcd60e51b8152602060048201526024808201527f4552433732313a207472616e7366657220746f20746865207a65726f206164646044820152637265737360e01b6064820152608401610566565b600081815260046020908152604080832080546001600160a01b03191690556001600160a01b038616835260039091528120805460019290611449908490611e6b565b90915550506001600160a01b0382166000908152600360205260408120805460019290611477908490611f92565b909155505060008181526002602052604080822080546001600160a01b0319166001600160a01b0386811691821790925591518493918716917fddf252ad1be2c89b69c2b068fc378daa952ba7f163c4a11628f55a4df523b3ef91a4505050565b816001600160a01b0316836001600160a01b0316036115395760405162461bcd60e51b815260206004820152601960248201527f4552433732313a20617070726f766520746f2063616c6c6572000000000000006044820152606401610566565b6001600160a01b03838116600081815260056020908152604080832094871680845294825291829020805460ff191686151590811790915591519182527f17307eab39ab6107e8899845ad3d59bd9653f200f220920489ca2b5937696c31910160405180910390a3505050565b6001600160a01b0382166115fc5760405162461bcd60e51b815260206004820181905260248201527f4552433732313a206d696e7420746f20746865207a65726f20616464726573736044820152606401610566565b6000818152600260205260409020546001600160a01b0316156116615760405162461bcd60e51b815260206004820152601c60248201527f4552433732313a20746f6b656e20616c7265616479206d696e746564000000006044820152606401610566565b6001600160a01b038216600090815260036020526040812080546001929061168a908490611f92565b909155505060008181526002602052604080822080546001600160a01b0319166001600160a01b03861690811790915590518392907fddf252ad1be2c89b69c2b068fc378daa952ba7f163c4a11628f55a4df523b3ef908290a45050565b60005b81518110156106075781818151811061170657611706611dd8565b60209081029190910181015160008581526009835260408082208583528452902081516117389391929091019061187f565b508061174381611e04565b9150506116eb565b61175684848461132d565b6117628484848461177e565b6111c45760405162461bcd60e51b815260040161056690611faa565b60006001600160a01b0384163b1561187457604051630a85bd0160e11b81526001600160a01b0385169063150b7a02906117c2903390899088908890600401611ffc565b6020604051808303816000875af19250505080156117fd575060408051601f3d908101601f191682019092526117fa91810190612039565b60015b61185a573d80801561182b576040519150601f19603f3d011682016040523d82523d6000602084013e611830565b606091505b5080516000036118525760405162461bcd60e51b815260040161056690611faa565b805181602001fd5b6001600160e01b031916630a85bd0160e11b149050611325565b506001949350505050565b82805461188b90611da4565b90600052602060002090601f0160209004810192826118ad57600085556118f3565b82601f106118c657805160ff19168380011785556118f3565b828001600101855582156118f3579182015b828111156118f35782518255916020019190600101906118d8565b506118ff929150611903565b5090565b5b808211156118ff5760008155600101611904565b6001600160e01b03198116811461123d57600080fd5b60006020828403121561194057600080fd5b813561194b81611918565b9392505050565b6000815180845260005b818110156119785760208185018101518683018201520161195c565b8181111561198a576000602083870101525b50601f01601f19169290920160200192915050565b60208152600061194b6020830184611952565b6000602082840312156119c457600080fd5b5035919050565b80356001600160a01b03811681146119e257600080fd5b919050565b600080604083850312156119fa57600080fd5b611a03836119cb565b946020939093013593505050565b6000602080830181845280855180835260408601915060408160051b870101925083870160005b82811015611a6657603f19888603018452611a54858351611952565b94509285019290850190600101611a38565b5092979650505050505050565b600080600060608486031215611a8857600080fd5b611a91846119cb565b9250611a9f602085016119cb565b9150604084013590509250925092565b634e487b7160e01b600052604160045260246000fd5b604051601f8201601f1916810167ffffffffffffffff81118282101715611aee57611aee611aaf565b604052919050565b600067ffffffffffffffff831115611b1057611b10611aaf565b611b23601f8401601f1916602001611ac5565b9050828152838383011115611b3757600080fd5b828260208301376000602084830101529392505050565b600082601f830112611b5f57600080fd5b8135602067ffffffffffffffff80831115611b7c57611b7c611aaf565b8260051b611b8b838201611ac5565b9384528581018301938381019088861115611ba557600080fd5b84880192505b85831015611bf657823584811115611bc35760008081fd5b8801603f81018a13611bd55760008081fd5b611be68a8783013560408401611af6565b8352509184019190840190611bab565b98975050505050505050565b600060208284031215611c1457600080fd5b813567ffffffffffffffff811115611c2b57600080fd5b61132584828501611b4e565b600060208284031215611c4957600080fd5b61194b826119cb565b60008060408385031215611c6557600080fd5b611c6e836119cb565b915060208301358015158114611c8357600080fd5b809150509250929050565b60008060408385031215611ca157600080fd5b50508035926020909101359150565b60008060408385031215611cc357600080fd5b823567ffffffffffffffff811115611cda57600080fd5b611ce685828601611b4e565b925050611cf5602084016119cb565b90509250929050565b60008060008060808587031215611d1457600080fd5b611d1d856119cb565b9350611d2b602086016119cb565b925060408501359150606085013567ffffffffffffffff811115611d4e57600080fd5b8501601f81018713611d5f57600080fd5b611d6e87823560208401611af6565b91505092959194509250565b60008060408385031215611d8d57600080fd5b611d96836119cb565b9150611cf5602084016119cb565b600181811c90821680611db857607f821691505b6020821081036106a757634e487b7160e01b600052602260045260246000fd5b634e487b7160e01b600052603260045260246000fd5b634e487b7160e01b600052601160045260246000fd5b600060018201611e1657611e16611dee565b5060010190565b6020808252602e908201527f4552433732313a2063616c6c6572206973206e6f7420746f6b656e206f776e6560408201526d1c881b9bdc88185c1c1c9bdd995960921b606082015260800190565b600082821015611e7d57611e7d611dee565b500390565b600060208284031215611e9457600080fd5b5051919050565b600081611eaa57611eaa611dee565b506000190190565b60006001600160ff1b0381841382841380821686840486111615611ed857611ed8611dee565b600160ff1b6000871282811687830589121615611ef757611ef7611dee565b60008712925087820587128484161615611f1357611f13611dee565b87850587128184161615611f2957611f29611dee565b505050929093029392505050565b600082611f5457634e487b7160e01b600052601260045260246000fd5b600160ff1b821460001984141615611f6e57611f6e611dee565b500590565b6000816000190483118215151615611f8d57611f8d611dee565b500290565b60008219821115611fa557611fa5611dee565b500190565b60208082526032908201527f4552433732313a207472616e7366657220746f206e6f6e20455243373231526560408201527131b2b4bb32b91034b6b83632b6b2b73a32b960711b606082015260800190565b6001600160a01b038581168252841660208201526040810183905260806060820181905260009061202f90830184611952565b9695505050505050565b60006020828403121561204b57600080fd5b815161194b8161191856fea2646970667358221220a1fa816b2cda5ce130ff12221e7ca8e5b459502e2b787b580d88231e16970b2364736f6c634300080d0033",
    "linkReferences": {}
  }
}